:10000000000000308A001228243084008313000886
:1000100003191128E530F700F70B0C280000800BBE
:100020000A280800840183131F30830511308316CA
:100030009900A630980090308312980083161F1400
:100040009F141F159F1107309C0001308312A000E0
:100050000230A1000130A000A008031D2F280430A9
:10006000A2000130A100A108031D362883168113C8
:10007000C03086008312200886000430A300FA30C6
:10008000A4000420A30B3F28C030831686008312EF
:10009000210886000430A300FA30A4000420A30B3A
:1000A0004C28C03083168600831222088600043054
:1000B000A300FA30A4000420A30B59288316382883
:0200C0006028B6
:02400E00393740
:00000001FF
;PIC16F876A
;CRC=A3DE  CREATED="24-sept.-15 11:50"
