:1000000000308A00182800002D3084008313000877
:10001000031917280A30F800F701F70B0D28F80B21
:100020000C289F30F700F70B1328800B0A280800D4
:10003000840183131F308305D43083169900A630C2
:10004000980090308312980083161F149F141F1578
:100050009F1107309C00C0308312A100F930A2002C
:10006000A430A300B030A4009930A5009230A600BF
:100070008330A700F830A8008030A9009030AA0093
:100080007F30AB000130A000AC012C080A3C031CFF
:100090005E288316850183122008850021302C07F5
:1000A000840083130008AD008316860183122D0897
:1000B00086003230AD000420AC0A45280230A00092
:1000C000AC012C080A3C031C7A2883168501831294
:1000D0002008850021302C07840083130008AD0020
:1000E0008316860183122D0886003230AD0004206D
:1000F000AC0A61280330A000AC012C080A3C031CA8
:1001000096288316850183122008850021302C074C
:10011000840083130008AD008316860183122D0826
:1001200086003230AD000420AC0A7D280430A000E7
:10013000AC012C080A3C031CB228831685018312EB
:100140002008850021302C07840083130008AD00AF
:100150008316860183122D0886003230AD000420FC
:10016000AC0A99280530A000AC012C080A3C031CFD
:10017000CE288316850183122008850021302C07A4
:10018000840083130008AD008316860183122D08B6
:1001900086003230AD000420AC0AB5280630A0003D
:1001A000AC012C080A3C031CEA2883168501831243
:1001B0002008850021302C07840083130008AD003F
:1001C0008316860183122D0886003230AD0004208C
:1001D000AC0AD1280730A000AC012C080A3C031C53
:1001E00006298316850183122008850021302C07FB
:1001F000840083130008AD008316860183122D0846
:1002000086003230AD000420AC0AED280830A00092
:10021000AC012C080A3C031C222983168501831299
:100220002008850021302C07840083130008AD00CE
:100230008316860183122D0886003230AD0004201B
:10024000AC0A09290930A000AC012C080A3C031CA7
:100250003E298316850183122008850021302C0752
:10026000840083130008AD008316860183122D08D5
:1002700086003230AD000420AC0A252942286300F4
:02400E00313F40
:00000001FF
;PIC16F876A
;CRC=392C  CREATED="07-janv.-16 11:09"
