:1000000000308A001B28000022308400831300087F
:10001000031918280130F800F701F70B0D28F80B29
:100020000C280E30F700F70B13280000800B0A286D
:100030008A110A123C28840183131F30830514306F
:1000400083169900A630980090308312980083168A
:100050001F149F141F159F1107309C00811301303E
:100060008312A000831686018312200886000230C6
:10007000A100FA30A2000428A10B39280310A00D1A
:100080002008023C031D46280330A00020083F3909
:0A009000031D322883162F28630099
:02400E00313F40
:00000001FF
;PIC16F876A
;CRC=CF9B  CREATED="15-oct.-15 10:54"
