:1000000000308A0019280000223084008313000881
:10001000031918280130F800F701F70B0D28F80B29
:100020000C280E30F700F70B13280000800B0A286D
:100030000800840183131F30830514308316990050
:10004000A630980090308312980083161F149F14D6
:100050001F159F1107309C00811301308312A000EF
:100060002008203C031C4928C030831686008312D8
:10007000200886000230A100FA30A2000420A10B63
:100080003C28C03083168600831286010310A00D21
:1000900030282008013C03186228C03083168600EF
:1000A0008312200886000230A100FA30A20004204A
:1000B000A10B5528C03083168600831286010310D9
:0A00C000A00C492883162D286300C8
:02400E00313F40
:00000001FF
;PIC16F876A
;CRC=3034  CREATED="08-oct.-15 10:59"
