:1000000000308A0019280000213084008313000882
:10001000031918280130F800F701F70B0D28F80B29
:100020000C280E30F700F70B13280000800B0A286D
:100030000800840183131F30830514308316990050
:10004000A630980090308312980083161F149F14D6
:100050001F159F1107309C00811301308312A000EF
:10006000FF30831685008312050B5C282008203C96
:10007000031C492883168601831220088600FA3063
:10008000A100042083168601831286010310A00DAF
:1000900036282008013C03185C2883168601831249
:1000A00020088600FA30A1000420831686018312FE
:1000B00086010310A00C4928FF30831685008312A7
:1000C0008508031D68288316860183122008860090
:0600D00083162D286300D9
:02400E00313F40
:00000001FF
;PIC16F876A
;CRC=8572  CREATED="15-oct.-15 08:48"
