:1000000001308A00A42900000A108A100A11820710
:1000100020342C3406340C340C005039E539F334D8
:100020006F37A01EA01275002730840083130008CC
:10003000031928280130F800F701F70B1D28F80BE9
:100040001C280E30F700F70B23280000800B1A281D
:1000500008002E080F39F700F030060577048600F7
:1000600031283228000086163528362800008612EE
:1000700039283A280000080006123E283F280000D0
:100080002B1C06122B18061645284628000086123F
:100090002C0EAD000F30AD052D08AE0029202C0828
:1000A0000F39AD00AE00292008000030831686000D
:1000B0008312061286120F30A70014200130A1000F
:1000C0002108033C031C6C280330AE0029200530B6
:1000D000A7001420A10A60280230AE002920A10147
:1000E0002108033C031C7D2821080420A200AB0149
:1000F0002208AC003C20A10A70288A110A12B429F7
:1001000026080C3A03198B28063A03199328023A59
:100110000319A928AE28AB010130AC003C20023005
:10012000A7001420B4280130A7000230A800280B33
:100130009A289D284030A9009E28A9010130270255
:10014000A90729088038AA00AB012A08AC003C2086
:10015000B428AB011030AC003C20B4280130AB0017
:100160002608AC003C20B42808000B08A1008B1323
:10017000831603178C170C140000000083120C0860
:100180007F390319FC280313A20003170D0803137A
:10019000A30003170F080313A4002208A600802061
:1001A000230803178D000313240803178F008316F9
:1001B0008C170C140000000083120C0D0E0D7F39FB
:1001C0000319FC280313A20003170D080313A3004F
:1001D00003170F080313A4002208A6008020230899
:1001E00003178D000313240803178F008D0A0319CA
:1001F0008F0A0313B82803170313A11B8B178A1147
:100200000A12BB290B08A2008B13831603178C1745
:100210000C14000000000318342983120C087F39E5
:100220000313A30003170D080313A40003170F08FB
:100230000313A5002308A6008020240803178D00BF
:100240000313250803178F0083168C170C14000066
:10025000000083120313A10B2E29312983160317E3
:10026000342953298316031783120C0D0E0D7F3981
:100270000313A30003170D080313A40003170F08AB
:100280000313A5002308A6008020240803178D006F
:100290000313250803178F008D0A03198F0A031013
:1002A0000313A10B0529A21B8B178A110A12C5295A
:1002B0002408F8012302031860292308F7006C2999
:1002C000F7010830A500A30DF70D240877020318E5
:1002D000F700F80DA50B6329080078082108A30092
:1002E0006430A40058217708A10078083030031D3D
:1002F0008029A21C8729A2198729221A2030832944
:10030000A21122122214F8077808A60080202108E2
:10031000A3000A30A40058217708A10078083030E3
:10032000031D9829A2199C29221C9C29221A2030DD
:10033000F8077808A60080203030A1072108A60021
:1003400080208A110A12CA29840183131F30830571
:1003500083161F149F141F159F1107309C008113D3
:1003600020308312A00055280C3003178D00003078
:100370008F000313B5280D3003178D0000308F0058
:1003800003100B300313A10002292008A1001B3029
:06039000A2006D296300CC
:02400E00313F40
:00000001FF
;PIC16F876A
;CRC=B275  CREATED="19-janv.-16 11:49"
