:10000000000000308A004428831606108312061070
:10001000810101088A3C03180928831606108312FF
:10002000061481010108403C031812288A110A12A3
:10003000B328831606108312061081010108443C80
:1000400003181E2883160610831206148101010866
:10005000863C031827288A110A12B3282930840005
:100060000008031941280130F800F701F70B362882
:10007000F80B35280E30F700F70B3C280000800BFA
:1000800033288A110A12BF2884011F3083051430D7
:1000900083169900263098009030831298008316BA
:1000A0001F149F141F159F1107309C00FF308312EF
:1000B000A800831681131F149F141F159F1183120C
:1000C0001F109412A812280883168700831228167E
:1000D0002808831687008312A81128088316870032
:1000E000003083129400831694000108C03902384E
:1000F0008100831290010030F800920000308316D6
:10010000920007309C0005080230F700F70B8628A4
:1001100000001C0883120D13FE3083169D00051588
:100120000F308312A100F130A00083160610831255
:100130000610A7012708C73C031CC1281030A300E4
:10014000A201A60126080C3C031CB82820082205A1
:10015000A40021082305A500A408031DB228A508B2
:100160000319042819280310A30CA20CA60AA2281C
:1001700083160610831206101430A9002E28A70A31
:060180009A28C128C228E4
:02400E00313748
:00000001FF
;PIC16F876A
