:1000000000308A002A2800008316850183123008F8
:10001000850020303107840083130008B200831666
:100020008601831232088600080030308400831372
:100030000008031929280130F800F701F70B1E28E2
:10004000F80B1D280E30F700F70B24280000800B5A
:100050001B280800840183131F3083051430831686
:100060009900A630980090308312980083161F14D0
:100070009F141F159F1107309C00C0308312A000F1
:10008000F930A100A430A200B030A3009930A40040
:100090009230A5008330A600F830A7008030A80079
:1000A0009030A9007F30AA00831681130530831297
:1000B000AF000630AB000330AC000930AD00AE013C
:1000C0000130B0002E08B10004202F08B000152028
:1000D0000230B0002D08B10004202F08B000152018
:1000E0000430B0002C08B10004202F08B000152007
:1000F0000830B0002B08B10004202F08B0001520F4
:040100005928630017
:02400E00313F40
:00000001FF
;PIC16F876A
;CRC=0A49  CREATED="12-janv.-16 08:47"
