:020000040001F9
:0300000021137C4D
:10000B00217449019100019200011A00011B0001AA
:06001B001C00011E0000A4
:10002300217F1320202020004C424154002E2E2EED
:020033002E009D
:10003B00217FC9120109FF601DFF09E970010AC088
:10004B00E0EAC0E0EBC0E012018C89D0E0FBD0E02D
:10005B00FAD0E0F980DD7F0A12018C89E4FEFF22E1
:10006B0021413D436F646500436F6469676F0020F6
:10007B002020456E7420202020536F7220202000FA
:10008B00202020496E70202020204F7574202020C6
:10009B0000202020456E742020202053616C2020EE
:1000AB002000436F6E7369676E652020202020202F
:1000BB0000536574706F696E74202020202020001F
:1000CB00436F6E7369676E612020202020200050E3
:1000DB006C616765202020202000447A6F6E6520BC
:1000EB002020202000506C617961202020202000EE
:1000FB0053656E732020202050726F677220200092
:10010B004D6F64652020202050726F677220200095
:10011B0053656E742020202050726F677220200070
:10012B004E46004E43004E4F004E41004E756D65DE
:10013B00726F004E756D6265720056696100456E97
:10014B007472656500496E70757400456E747261EA
:10015B0064610046696C7472202A2A204E697620ED
:10016B002A0046696C7472202A2A204C6576202A54
:10017B00004E6F726D616C00566F6965004368616C
:10018B006E6E656C0042617320202020204E6976D4
:10019B00004C6F7720202020204C6576656C20006A
:1001AB0042616A6F202020204C6576656C200048E8
:1001BB0061757420202020204E697600486967689D
:1001CB0020202020204C6576656C2000416C746FDC
:1001DB0020202020204C6576656C2000456E740035
:1001EB00496E7000536F72004F75740053616C0051
:1001FB00416E6100526164696F004F0059005300FA
:10020B004E00536F72746965004F7574707574008E
:10021B0053616C696461003939392052415A20733A
:10022B006F7274696573200039393920636C6561AD
:10023B007220616C6C003939392052415A003030D0
:10024B00302066696E20003030302065786974008C
:10025B003030302073616C69640030302046696E39
:10026B0000303020457869740030302053616C6960
:10027B00640048657572652020203A20200054697F
:10028B006D65202020203A202000486F72612020CD
:10029B0020203A20200044617465202020202F204C
:1002AB00202F20200044617920202020202F202087
:1002BB002F20200046656368612020202F20202FEF
:1002CB00202000506172616D65747265732000535C
:1002DB00657474696E677300506172616D657472D9
:1002EB006F73004361727465732045544F5200491C
:1002FB006E70757420626F6172647300456E7472F8
:10030B00207461726A657461730043617274657302
:10031B002053544F52004F757470757420626F6187
:10032B007264730053616C207461726A65746173DB
:10033B00004361727465732045414E4100416E610B
:10034B006C6F6720626F6172647300416E616C2029
:10035B007461726A657461730043617274657320B2
:10036B00726164696F00526164696F20626F6172C0
:10037B00647300526164696F207461726A657461A1
:10038B007300566F696573206361626C65657300FA
:10039B005769726564206368616E6E656C73005695
:1003AB00696173206361626C656164617300566F90
:1003BB0069657320726164696F00526164696F20B3
:1003CB006368616E6E656C73005669617320726150
:1003DB0064696F0048797374657265736973200083
:1003EB0048797374657265736973004869737465D2
:1003FB0072657369730046696C7472616765287303
:10040B002900436F6E74726F6C2074696D6528736D
:10041B00290046696C74726F202873290044656C3F
:10042B00616920616C61726D6500416C61726D2058
:10043B0064656C61792000506572696F646F20612F
:10044B006C61726D610044656C61692072656172EB
:10045B006D656D656E740052657472696767657260
:10046B00696E6720004E627220726567756C6174ED
:10047B00696F6E7300436F6E74726F6C206C6F6F6D
:10048B00707300526567756C6163696F6E6573009D
:10049B004E756D65726F207465726D696E616C005F
:1004AB005465726D696E616C206E756D626572005C
:1004BB004E756D65726F20617175616C61726D0047
:1004CB00436F706965206D65737572657300526556
:1004DB006D6F746520646973706C6179005465731A
:1004EB00742062617474657269650042617474652D
:1004FB0072792074657374004E6976656175206638
:10050B00696C7472650046696C746572696E67001C
:10051B004361727465732045414E41203800386148
:10052B006E616C6F6720626F61726473003820417B
:10053B006E616C207461726A65746173004E6272D5
:10054B0020726567756C5F50490050495F436F6E51
:10055B0074726F6C00526567756C5F50490048652B
:10056B00757265207265616C617200526573746F90
:10057B0072696E672074696D6500486575726520D8
:10058B007265616C003A004E756D65726F20736F0A
:10059B006E64650050726F6265206E756D62657278
:1005AB00004E756D65726F20736F6E646100503114
:1005BB00204D6573757265005031204D6561737503
:1005CB00726500503120506F696E74730050322089
:1005DB004D6573757265005032204D656173757290
:1005EB006500503220506F696E7473003D3E2041A0
:1005FB006E6E756C6572003D3E2043616E63656C7B
:10060B00003D3E20416E756C617200464C42207677
:10061B00616C6964657200446F776E2076616C69FA
:10062B00646174650042616A6F20626F72726172FD
:10063B00004D6F6465002030206D616E75656C2018
:10064B0031206175746F002030206D616E75616CA7
:10065B002031206175746F0041207265636F6E6489
:10066B006974696F6E6E657200546F2072656E6F80
:10067B00766174650054656D706572617475726531
:10068B0020002054656D7065726174757265202051
:10069B00002054656D706572617475726120200065
:1006AB005072657373696F6E2020202020206D625D
:1006BB000050726573737572652020202020206DA9
:1006CB00620050726573696F6E20202020202020FD
:1006DB006D620053616C696E697465202020206720
:1006EB002F6C0053616C696E697479202020202077
:1006FB00672F6C0053616C696E6964616420202004
:10070B0020672F6C003A20203A20203A20203A20F4
:10071B00203A20203A00410044004300466C2068F8
:10072B006175742F62617320203D3E20736F72746C
:10073B0069720055702F446F776E203D3E206578AF
:10074B00697400416C742F42616A6F203D3E2073C7
:10075B00616C697200536575696C2062617320006E
:10076B004C4F20616C61726D004E6976656C206236
:10077B00616A6F00536575696C2068617574004818
:10078B004920616C61726D004E6976656C20616CFD
:10079B00746F0044656661757420726164696F00E3
:1007AB004E6F20726563657074696F6E0046616C85
:1007BB006C6F20726164696F0056206566666163B9
:1007CB006572005620636C656172005620626F7211
:1007DB00726172003D3E20736F72746972003D3E10
:1007EB002065786974003D3E2073616C697200412D
:1007FB00637175697474656D656E740041636B6EBE
:10080B006F776C656467650044656661757420433A
:10081B00414E0043414E206661756C740066616CFD
:10082B006C6F2043414E00426174746572696520A0
:10083B006261737365004C6F7720626174746572CB
:10084B0079004261746572696120646573636172DA
:10085B00002020202F20202020203A2020004C6137
:10086B006E677565004C616E6775616765004964FD
:10087B00696F6D61003020462031204742203220C5
:10088B0045004D6F6465206427616C61726D650076
:10089B00416C61726D206D6F6465004D6F646F20EC
:1008AB00616C61726D61003020496E6869626565CB
:1008BB00003020496E616374697665003020496EA3
:1008CB0068696269646F0031206C6F63616C6520CD
:1008DB000031206C6F63616C00322064697374614A
:1008EB006E746500322072656D6F74650032206E18
:1008FB006F726D616C00415155414C33393020564C
:10090B00322E3200928E8A86837F7C797673716E5B
:10091B006B69676562605E5C5B5957565452515008
:10092B004E4D4C4A4948474644434241408A868390
:10093B007F7C797673706E6B69676563615F5D5BF6
:10094B00585756545351504E4D4C4A4948474644BC
:10095B004341403F3F3F827E7B7875726F6D6A6883
:10096B006563615F5D5B5A5856555351504F4D4C03
:10097B004A4947464543424141403E3D3C3B3A791B
:10098B007673706E6B69666462605E5C5A5856551E
:10099B005352504E4D4C4A49484645444241403FC4
:1009AB003E3D3C3B3A393837716E6C696764626027
:1009BB005E5C5A5856555351504E4D4C4A4947461A
:1009CB0045434241403F3D3C3B3A3938373635345D
:1009DB0034C2D530F707B2D563F0FF05F030E70D21
:1009EB00B2D5F404008463F0FF05F080018430D5A8
:1009FB0002F40422EB7002E72289828A831410E747
:100A0B0004F593E022F593E49322BB0002F722BB9B
:100A1B008000500989828A838B931593F022EF8D86
:100A2B00F0A4A8F0CF8CF0A428CE8DF0A42EFE223B
:100A3B00C5F0F8A3E028F0C5F0F8E5821582700246
:100A4B001583E038F022A3F8E0C5F025F0F0E5823D
:100A5B00158270021583E0C838F0E822EB7007E7C7
:100A6B00F5F009E7192289828A831410E708F593B8
:100A7B00E0F5F0A3E022F593E493F5F074019322F3
:100A8B00BB0006F709A7F01922BB8000500D898225
:100A9B008A838B931593F0E5F0A3F022ECF0A3ED92
:100AAB00F0A3EEF0A3EFF022A42582F582E5F0355A
:100ABB0083F58322EB7006E9F802010F8489828AA1
:100ACB00831410E706F59302010F9DF59302010FB6
:100ADB00A68B938A838982159353937FE473EF4E8E
:100AEB006022EF60010EEDBB0007F709DFFCA9F0F8
:100AFB0022BB8000500E89828A838B931593F0A3BF
:100B0B00DFFCDEFA22EB701BE9D398500EE92FF9CC
:100B1B00E82FF819E718F6DFFA8025E709F608DF62
:100B2B00FA801D89828A831410E70AF593E0A3F6F5
:100B3B0008DFFA800B89828A83E493A3F608DFF936
:100B4B00ECFAA9F0EDFB2288F08E83EF60010E4EDC
:100B5B0060EE88F0ED60AE1410E7E5CB700E888286
:100B6B008C838B93E709F0A3DFFA80D41410E7533F
:100B7B00F593D3E998EA9CE5939B502BE82FF584EA
:100B8B00EC3583F585E43BF595E92FF582EA358362
:100B9B00F583E43593F5937586E0A3A3E0F0DFFAD4
:100BAB00DEF8758600809988848C858B9589828A7E
:100BBB0083758620E0F0A3A3DFFADEF875860002CA
:100BCB00010B4B88848C858B9589828A83F5937571
:100BDB008620E493F0A3A3DFF9DEF775860002010C
:100BEB000B4BEB700C87F009E608B5F019DFF680BC
:100BFB001589828A831410E70FF593E0F5F0A3E6CD
:100C0B0008B5F002DFF5806AF593E493F5F0A3E6FF
:100C1B0008B5F05EDFF4805ACB701388828C838B1F
:100C2B009387F009E493A3B5F048DFF580441410E3
:100C3B00E71F88848C858B9589828A83F5937586CB
:100C4B0020E0F5F0E493A3A3B5F024DFF4DEF2800B
:100C5B001E88848C858B9589828A83F59375862073
:100C6B00E493F5F0E493A3A3B5F004DFF3DEF175A1
:100C7B0086007FFFB5F0020F2240027F01220201A6
:100C8B000BED809488F0EF60010E4E60F0ED60EE9E
:100C9B001410E7EECB701288828C83F59387F009E2
:100CAB00E0A3B5F0CDDFF680C91410E71E88848C65
:100CBB00858B9589828A83F593758620E0F5F0E024
:100CCB00A3A3B5F0AADFF5DEF380A488848C858B13
:100CDB009589828A83F593758620E493F5F0E0A3DA
:100CEB00A3B5F08BDFF4DEF28085EB7008E709F635
:100CFB0008DFFA801B89828A831410E70AF593E0D8
:100D0B00A3F608DFFA8009F593E493A3F608DFF95D
:100D1B00ECFAA9F0EDFB2288F0EF60010E4E60F0CB
:100D2B0088F0ED60C51410E7E7CB700E88828C83DA
:100D3B008B93E709F0A3DFFA80D61410E71C8884A5
:100D4B008C858B9589828A83F593758620E0F0A339
:100D5B00A3DFFADEF875860080B688848C858B95C8
:100D6B0089828A83F593758620E493F0A3A3DFF938
:100D7B00DEF77586008099EB7008E709F60870FAC4
:100D8B00801B89828A831410E70AF593E0A3F60887
:100D9B0070FA8009F593E493A3F60870F9ECFAA9BD
:100DAB00F0EDFB2288F0ED60CE1410E7F0CB700E67
:100DBB0088828C83F593E709F0A370FA80DF141017
:100DCB00E71A88848C858B9589828A83F59375863F
:100DDB0020E0F0A3A370FA75860080C188848C850F
:100DEB008B9589828A83F593758620E493F0A3A370
:100DFB0070F975860080A68FD38ED38DD48CD4E5F5
:100E0B00D220E7FBAED3AFD3ACD4ADD422C2D5EC5A
:100E1B0030E709B2D5E4C39DFDE49CFCEE30E71648
:100E2B00B2D5E4C39FFFE49EFE12010E02C3E49D04
:100E3B00FDE49CFC800412010E0230D507C3E49F35
:100E4B00FFE49EFE22B80021B9005A8FD38ED38DBA
:100E5B00D38CD38BD48AD4E5D220E7FBACD3ADD3E0
:100E6B00AED3AFD3ABD4AAD42275F008758200EF02
:100E7B002FFFEE33FECD33CDCC33CCC58233C582C1
:100E8B009BED9AEC99E58298400CF582EE9BFEED7A
:100E9B009AFDEC99FC0FD5F0D6E4CEFBE4CDFAE449
:100EAB00CCF9A8822275F010EF2FFFEE33FEED3355
:100EBB00FDCC33CCC833C810D7079BEC9AE89940CC
:100ECB000AED9BFDEC9AFCE899F80FD5F0DAE4CD2E
:100EDB00FBE4CCFAE4C8F92243D2108DD48CD48B2A
:100EEB00D38AD3E5D220E7FB8FD48ED489D388D392
:100EFB00E5D220E7FBE5D5E5D5E5D5ACD5ADD58F6E
:100F0B00D48ED48BD38AD3E5D220E7FB85D3F0E5FF
:100F1B00D3AED3AFD32DFDE5F03CFC22E88FF0A48C
:100F2B00CC8BF0A42CFCE98EF0A42CFC8AF0EDA465
:100F3B002CFCEA8EF0A4CDA8F08BF0A42DCC382598
:100F4B00F0FDE98FF0A42CCD35F0FCEB8EF0A4FE78
:100F5B00A9F0EB8FF0A4CFC5F02ECD39FEE43CFC0D
:100F6B00EAA42DCE35F0FDE43CFC22C3E49FFFE464
:100F7B009EFEE49DFDE49CFC22E6FB08E6FA08E6F7
:100F8B00F922FAE6FB0808E6F925F0F618E6CA3A64
:100F9B00F622E0FBA3E0FAA3E0F922E493FB740151
:100FAB0093FA740293F922D093D083D082F8E4930E
:100FBB007012740193700DA3A393F8740193F582CF
:100FCB008883E4737402936860EFA3A3A380DFE5C7
:100FDB004A243EF8E6054A22783B301A02783EE472
:100FEB0075F00112010F8D020109FF2013E97F2E0D
:100FFB00D2138018EF540F2490D43440D4FF301701
:10100B000BEF24BFB41A0050032461FFE54B6002C1
:10101B00154B054EE54E7002054D301A0F783BE42B
:10102B0075F00112010F8DEF02010A1502018C8977
:10103B007403D21A8003E4C21AF54A8B3B8A3C89AB
:10104B003DE4F54BF54DF54EE54B60087F20120165
:10105B00101780F4754CFFC214C213C215C216C20E
:10106B0018C219C21B12010FE3FF700E301A067F54
:10107B000012011028AF4EAE4D22B42563C2D5C26B
:10108B001712010FE3FF24D0B40A00501A75F00AAF
:10109B00784B30D50508B6FF0106C6A426F620D539
:1010AB00047002D21680D824CFB41A00EF5004C2B9
:1010BB00E5D21702011251D21480C4D21380BED2D2
:1010CB001580BAD2D580B8D21880B27F2012011009
:1010DB00172015077401B54B0040F012010FDAFF12
:1010EB001201101702011053D21BD219808F12015B
:1010FB000FDAFB12010FDAFA12010FDAF94A4B7011
:10110B000679287A137B8220153DE54B60397E00EA
:10111B00E9C0E02EF9EAC0E03400FA120109FFF948
:10112B00D0E0FAD0E0C960060EEE654C70E2C2D595
:10113B00EBC0E0EAC0E0E9C0E0EE12011299D0E0AA
:10114B00F9D0E0FAD0E0FB120109FFFF6096EBC08B
:10115B00E0EAC0E0E9C0E012011017D0E02401F989
:10116B00D0E03400FAD0E0FBE54C0460DAD54CD784
:10117B00020110EF7BFF7A127995D21580897910D5
:10118B0080027908C219C21B8008D2D5790A800463
:10119B00790AC2D5E54C047002F54CE4FAFDFEFF6A
:1011AB0012010FDAFC7B0820141612010FDAFD7BFB
:1011BB001030130C12010FDAFE12010FDAFF7B2035
:1011CB00EC3382D592D55013C3E43013069FFFE462
:1011DB009EFEE42014039DFDE49CFCE4CBF8C214BA
:1011EB00EC700CCFCECDCCE824F8F870F38017C39D
:1011FB00EF33FFEE33FEED33FDEC33FCEB33FB99BA
:10120B004002FB0FD8E9EB301405F8D0E0C448B22C
:10121B0014C0E00AEC4D4E4F78207B0070C2EAB54B
:10122B004C0040BCC0E01201129BD0F0D0E0201467
:10123B0004C4C0E0C4B214C0F012011000D0F0D549
:10124B00F0EA0201105312010FB210F95311895831
:10125B0010C64C10C242118D4F1195441195491077
:10126B00DC43119B55117F46117F45117F47134579
:10127B005010CA2D10CE2E10F52B10D22310F320A8
:10128B0013312A108848000010EB3F3F3F00790ACA
:10129B00A2D5201614301809B910020404B908019C
:1012AB0004A2D520190250010420156D9215B54BDF
:1012BB00005036C0E07F2030161A7F30A21572190D
:1012CB0072185010120112F4C215C219C218C21BA7
:1012DB007F308010301803E9C0E01201101730186E
:1012EB0003D0E0F9D0E0B54BCA3018197F30B910F4
:1012FB000D120110177F583017077F788003B9083C
:10130B0004120110173015067F2D020110177F20D4
:10131B00201BF77F2B2019F222921580CC286E759B
:10132B006C6C2900D21412010FDA3014F7C2147846
:10133B004B30D50108F60201108812010FDA7F49F4
:10134B0060087F4310E7027F5814C0E0EF120110D2
:10135B0008743A12011008D0E0600DC0E0C412010D
:10136B001000D0E012011000D216754B04020111CF
:10137B008975C7AA75C75575C6A075C7AA75C75510
:10138B00759D06787FE4F6D8FD7581FF759BFF028E
:10139B000113DA0201151BE493A3F8E493A34003B2
:1013AB00F68001F208DFF4802AE493A3F8540724B3
:1013BB000CC8C333C4540F4420C8834004F4568074
:1013CB000146F6DFE4800C010204081020408090F7
:1013DB0001000EE47E019360BAA3FF543F30E50990
:1013EB00541FFEE493A360010ECF54C025E060A709
:1013FB0040B7E493A3FAE493A3F8E493A3C8C5829C
:10140B00C8CAC583CAF0A3C8C582C8CAC583CADF08
:10141B00E9DEE780BE90000000E4F0A3E593B4079B
:10142B00F8E583B4FFF3E582B4F0EE229040101799
:10143B00E0FEA3E0FF7865E6FD08E6FC90006B306C
:10144B00058690006B31EE6D5E7808F9E913F95063
:10145B000CE02401F00586E03400F00586A3A3051B
:10146B0086A3A30586D8E5EF6C5F7804F9E913F939
:10147B00500CE02401F00586E03400F00586A3054E
:10148B0086A30586D8E7058622C2D5E830E70FB2DA
:10149B00D5E4C39BFBE49AFAE499F9E498F8EC30B1
:1014AB00E719B2D5120114CD12010E50E4C39BFB08
:1014BB00E49AFAE499F9E498F8800412010E50309A
:1014CB00D50DE4C39FFFE49EFEE49DFDE49CFC224E
:1014DB00E94A4B700122120109FFFF6D700122EFE7
:1014EB007004FBFAF92209E970EC0A80E9E4FFFECB
:1014FB00120109FF600C0FEF70010E09E970F10A80
:10150B0080EE223300313500257320256C751A00CF
:10151B00E47892F67891F63188FD78B776FD087607
:10152B00E878B708E6161886067001164E70F27842
:10153B00B776FD0876E878B708E6161886067001C8
:10154B00164E70F275C7AA75C755D2D875C7AA754E
:10155B00C755D2D9318953317E58D22190005F0AB9
:10156B007401F0D21DD220C21C318DC9318D34E4EF
:10157B007FFF7EFFFDFC90007064310AA7E4FFFE45
:10158B00FDFC90007060310AA790004EF07401F0E2
:10159B00E478CEF608F69000706AF0C2227D0AFC61
:1015AB007F01318DD87D0A7C007F02318DD8E478A4
:1015BB00B4F69000060BE0FF78B4E6C39F5031E61B
:1015CB00FF24F0F582E4346CF583759300E4F0743A
:1015DB00182FF582E4346DF583759300E4F074A055
:1015EB002FF582E4346CF583759300E4F00680C22A
:1015FB007E007F407D967B017A6F79A0310AE97E70
:10160B00007F807D007B017A6F79E0310AE97E00F3
:10161B007F187D017B017AA47905310AE97E007F71
:10162B00327D007B017A8C79F0310AE9E49000700D
:10163B0068F090007069F078D0F6751F01F560F5D1
:10164B005F9000728AF0900072CFF090009014F0CF
:10165B0090003D0EE0B40207900072887401F0D246
:10166B00AF3177C4D211E490009013F075C7AA750F
:10167B00C755D2D8E5A430E703317E587891E6B44C
:10168B00011290003D0EE0B403053171B380057F6C
:10169B0001313CFC7892E6B4010BE5606402600515
:1016AB00E4FF313CFC7F03318DB85006E4900072AF
:1016BB008AF07F02318DB85010E5609400400A909B
:1016CB0000728AE070033166DFE478B6F67F023190
:1016DB008DB8500890007288E078B6F678B6E6B40C
:1016EB000126C2ACE490007288F0900072897402FB
:1016FB00F031851DEFD394004006E490007289F021
:10170B00D2ACE47892F6C2987F02318DB850139028
:10171B00009014E0B4010B318B77D2ACE47892F6E5
:10172B00C29890005F0AE0600331841F300F16905F
:10173B00007068E0700F3179DE90005F0A7401F081
:10174B00D221200CFD300C0790004EF07401F020DC
:10175B001D03302303318D54201D03211677900078
:10176B00060DE06401704C200B197531017B05FAF5
:10177B007DBB7C02FF3157B57D0A7C007F04318D28
:10178B00D8803030221D7531017B057A007DBB7C02
:10179B00027F013157B57F04318DB85016D287C205
:1017AB002280107531037B057A007DBB7C027F01A3
:1017BB003157B59000060CE06020AF1F31839405C4
:1017CB001F78CFE675F002A4FFD3E51F9FE5F06409
:1017DB0080F87480984003751F01900070BFE07013
:1017EB002578B4F678B4E6FFC39403501974002F30
:1017FB00F582E43406F583759300E0FF900070BF2B
:10180B00E02FF00680DE318D9678CFE670299000C0
:10181B000605E0FFFD90000604E0FE2DFDE433FC21
:10182B00D3ED9400EC64809480400CEE2FC39401B4
:10183B00131313541F04F678CFE6D3940140447F5F
:10184B0001318DB8401278CEE62405F582E434A43C
:10185B00F583759300E0702B78CE0679CEE7C3083D
:10186B00964003E418F678CEE62405F582E434A41A
:10187B00F583759300E060E07D0A7C007F01318D7C
:10188B00D8D22178CFE6FFD394014033300D15EF3A
:10189B009401FF18E6C39F500506D2218006E47819
:1018AB00CEF6D221300E1878CEE6D3940040051632
:1018BB00D221800BC378CFE6940179CEF7D221E405
:1018CB0078B4F6900070BFE0FF78B4E6FEC39F508B
:1018DB0036EE25E0249BF582E43443F583759300C3
:1018EB00E0FEA3E0D39400EE94004016E625E0243E
:1018FB009BF582E43443F58375930074FFF5F03167
:10190B000A3B78B40680BCE478B4F69000060EE08F
:10191B00FF78B4E6FEC39F506C90000601E0FF9089
:10192B00000600E02F2E25E0249BF582E43443F5DE
:10193B0083759300E0FEA3E04E7045E675F008A4B6
:10194B0008F678B4E62401FFE433FEEF7803C333E3
:10195B00CE33CED8F9FF78B5E6FDD39FEE6480F891
:10196B00748098501B75F002EDA42407F582E5F006
:10197B00345CF583759300E4F0A3F078B50680C270
:10198B0078B4068086E478B4F69000060EE0FF90FB
:10199B00000602E0C39FFE78B4E6FDC39E507D9027
:1019AB00000601E0FE90000600E02EFEEF2E2D2536
:1019BB00E0249BF582E43443F583759300E0FEA3AA
:1019CB00E04E7052E675F014A408F678B4E62401E4
:1019DB00FFE433FE7C007D14310A2978B5E6FDD394
:1019EB009FEE6480F8748098502C9000060EE07582
:1019FB00F008A42DFFEC35F0FEEF25E0FFEE33FEF3
:101A0B0074072FF582745C3EF583759300E4F0A3A5
:101A1B00F078B50680B578B406211994318A5078E0
:101A2B00AB7C707D017B007A0079777E007F14316F
:101A3B000B5290008D22E0D3940140033176AE31EE
:101A4B00757C316345E4FF3185FB315F4731615D67
:101A5B003173149000060BE0D394004003314D7AA0
:101A6B00E478B5F69000060FE0FE78B5E6FFC39E6E
:101A7B00504E743E2FF582E43438F583759300E0B5
:101A8B00601174A02FF582E4346CF583759300E438
:101A9B00F0802874A02FF582E4346CF583759300E5
:101AAB00E0D39400401274A02FF582E4346CF583DC
:101ABB00759300E014F0800331704D78B50680A467
:101ACB009000060FE0D39400400331689820200368
:101ADB00211BEB3177C490000610E065537004A313
:101AEB00E06554702BFE7FC0FD7B017A8E7903314C
:101AFB000AE97E007FC07D007B017A8E79C3310AB3
:101B0B00E97E007F907D007B017A8F7983310AE932
:101B1B009000060DE06401702BE554B4580EE553AC
:101B2B00B40209A222B35004C287D222D3E5549443
:101B3B0061E55394024004D287C2227D0A7C007F68
:101B4B0004318DD8316D54E478B4F678B4E6FFC324
:101B5B0094104003211BEB74902FF582E4346CF549
:101B6B0083759300E008F6607178B5E6C39401FFC6
:101B7B00E49400FEEF7802C333CE33CED8F9FF24C2
:101B8B005EF58274303EF583759300E0FCA3E0D3E1
:101B9B009554EC9553502F74602FF58274303EF5AD
:101BAB0083759300E0FEA3E0C39554EE9553401666
:101BBB0078B4E6247EF582E43433F583759300E044
:101BCB00FF318BB4801478B4E6247EF582E4343391
:101BDB00F583759300E0FF318C0D78B406211B560D
:101BEB003154B2316BCF7F013185FBA211B350065B
:101BFB003023033181C8C21190004EEFE0B40103D2
:101C0B0031866890004EF2E0B4010331878E90006C
:101C1B004EF0E0B40103318AA490006C8FE0601F9A
:101C2B00E4F07E097F1BFD7B017A607912310AE9B2
:101C3B007E007FF37D007B017A6B7948310AE9C224
:101C4B001D201E03211CD8E478B4F690000605E095
:101C5B00FF78B4E6FEC39F507274C32EF582E43452
:101C6B008DF583759300E0704C74A02EF582E434EF
:101C7B006FF583759300E0D39400402174A02EF58B
:101C8B0082E4346FF583759300E014F0EE2410FDBD
:101C9B00E43402FCE4F5317B01FAFF801378B4E6FF
:101CAB002410FDE43402FC7531037B017A007F01C3
:101CBB003157B5801178B4E624A0F582E4346FF582
:101CCB0083759300E4F078B4068080C21E301F2C1D
:101CDB0078997C707D017B007A0079657E007F129C
:101CEB00310B5290000603E0D394004003318DA7D3
:101CFB009000060CE06003316ED2C21F202003213E
:101D0B001677E564D39400400DD5640A90004EF32A
:101D1B00E070037402F090000603E0D39400402AB5
:101D2B0078D006E6640F7022F678E07C6F7D017B3D
:101D3B00017A707920FE7F40310B527E007F407D0F
:101D4B00007B017A707920310AE9E478B4F678B433
:101D5B00E6FFC394C04003211E1C75F009EFA424B9
:101D6B0062F582E5F03428F583759300E008F6D32D
:101D7B009400405BE408F6181678B6E6FFC3940AA5
:101D8B00502A18E675F02CA42462F582E5F0341D78
:101D9B00F58375930075F004EF310AB3E0FEA3E011
:101DAB00C39554EE95535004080680CD78B5E6756F
:101DBB00F02CA42460F582E5F0341DF58308E6755C
:101DCB00930075F004310AB3E0FEA3E008801A78A3
:101DDB00B4E675F009A42463F582E5F03428F583A5
:101DEB00759300E0FEA3E078B7A60608F678B7E691
:101DFB00FE08E6FF78B4E675F002A424E0F582E570
:101E0B00F0346DF583759300EEF0A3EFF006211D12
:101E1B0059E478B4F690000605E0FF90000604E064
:101E2B002FFFE433FE78B4E6FDC39FEE6480F874B5
:101E3B0080984003211EF574932DF582E4340AF546
:101E4B0083759300E078B5F6D39400405BE408F615
:101E5B00181678B6E6FFC3940A502A18E675F02CCC
:101E6B00A424E2F582E5F03422F58375930075F036
:101E7B0004EF310AB3E0FEA3E0C39554EE95535043
:101E8B0004080680CD78B5E675F02CA424E0F58225
:101E9B00E5F03422F58308E675930075F004310AFA
:101EAB00B3E0FEA3E008801A78B4E675F002A42430
:101EBB0053F582E5F03408F583759300E0FEA3E05B
:101ECB0078B7A60608F678B7E6FE08E6FF78B4E61C
:101EDB0075F002A424C0F582E5F03470F583759398
:101EEB0000EEF0A3EFF006211E20E478B4F690008C
:101EFB00060BE0FF78B4E6FEC39F40032120B475C8
:101F0B00F014EEA42491F582E5F03433F583759348
:101F1B0000E008F6D39400405BE408F6181678B698
:101F2B00E6FFC3940A502A18E675F02CA42462F538
:101F3B0082E5F0341DF58375930075F004EF310ADB
:101F4B00B3E0FEA3E0C39554EE955350040806800E
:101F5B00CD78B5E675F02CA42460F582E5F0341D40
:101F6B00F58308E675930075F004310AB3E0FEA320
:101F7B00E008801A78B4E675F014A4249CF582E589
:101F8B00F03433F583759300E0FEA3E078B7A60633
:101F9B0008F678B4E6FD75F014A42499F582E5F003
:101FAB003433F583759300E008F6D39400405EE676
:101FBB009401FFE49400FEEF25E0FFEE33FE7487FF
:101FCB002FF582745D3EF583759300E0FEA3E0FF71
:101FDB0075F014EDA42498F582E5F03433F5837590
:101FEB009300E0FDC3EF9D7480F8EE648098501D64
:101FFB0078B4E675F014A42497F582E5F03433F544
:10200B0083759300E078B826F618E436F678B5E6D3
:10201B00FFD39400406DEF9401FFE49400FEEF2595
:10202B00E0FFEE33FE74872FF582745D3EF583750A
:10203B009300E0FEA3E0FF18E6FD75F014A424A1C5
:10204B00F582E5F03433F583759300E0FBD3EF9B1A
:10205B007480F8EE648098402A75F014EDA424A0E7
:10206B00F582E5F03433F583759300E0FF78B7E63E
:10207B00FC08E6FDD39FEC94004008ED9FF6EC9432
:10208B000018F678B7E6FE08E6FF9000060FE0783A
:10209B00B42625E02440F582E4346DF58375930076
:1020AB00EEF0A3EFF006211EF9E478B4F6900006EB
:1020BB000FE0FF78B4E6FEC39F400321217D75F04E
:1020CB000AEEA424B0F582E5F03436F5837593005F
:1020DB00E008F6D39400405BE408F6181678B6E6F1
:1020EB00FFC3940A502A18E675F02CA42462F582DB
:1020FB00E5F0341DF58375930075F004EF310AB3E9
:10210B00E0FEA3E0C39554EE95535004080680CD32
:10211B0078B5E675F02CA42460F582E5F0341DF556
:10212B008308E675930075F004310AB3E0FEA3E073
:10213B0008801A78B4E675F00AA424B2F582E5F0AB
:10214B003436F583759300E0FEA3E078B7A6060856
:10215B00F678B7E6FE08E6FF78B4E625E02440F50E
:10216B0082E4346DF583759300EEF0A3EFF0062156
:10217B0020B8E478B7F608F678B7E6FE08E6FFC3B2
:10218B0094BCEE94024003212217EF25E0FFEE33BF
:10219B00FE74FF2FF58274433EF583759300E0FECA
:1021AB00A3E064014E705A18E6FC08E6FD25E0FF3B
:1021BB00EC33FE74772FF58274493EF583759300EB
:1021CB00E475F001310A3B74772FF58274493EF5C3
:1021DB0083759300E0FEA3E0FF9000060AE0FB7A14
:1021EB0000EFB5031CEAB50618ED25E0FFEC33FE56
:1021FB0074FF2FF58274433EF583759300E4F0A3CF
:10220B00F078B806E618700106212183E5636002B9
:10221B0015639000706AE060032123D8E5636003C7
:10222B002123D890005F0BE07002A3E0700F9000A9
:10223B005F07E54FF0A3E550F0A3E551F0900006E2
:10224B0004E02401FFE433FEA3E07C002FFFEC3E0F
:10225B00FE9000060BE02FFFEC3EFE9000060FE019
:10226B002FFFEC3EFE78B7F608EFF6D39401EE9411
:10227B000050032123D118E6FE08E6FF90005F0B08
:10228B00E0FCA3E0FD310A2978B7EEF608EFF6C3C0
:10229B009468EE947440032123C2180806E618864E
:1022AB00067001061425E0FFEE33FE74042FF9745B
:1022BB00003EFA7B02E5538554F0310A8BE478B487
:1022CB00F690000605E0FF90000604E02FFFE433D4
:1022DB00FE78B4E6FDC39FEE6480F8748098503DA1
:1022EB0075F002EDA42487F582E5F0345DF5837576
:1022FB009300E0FAA3E0FD78B8E625E0FF18E6339B
:10230B00FE74042FF974003E7B02CA8DF0310A8BE8
:10231B0078B40678B806E61870A70680A4E478B4FB
:10232B00F69000060BE0FF9000060FE02FFFE43362
:10233B00FE78B4E6FDC39FEE6480F8748098506716
:10234B00ED25E02490F582E4346DF583759300E080
:10235B00FEA3E0FFE4FCFD7B64FAF9F8310EE3C069
:10236B0006C0079000706BE075F03CA4AEF0FBAAC2
:10237B0006E4F9F8D007D006311494AD07AC067813
:10238B00B8E625E0FF18E633FE74042FF974003E1F
:10239B00FA7B02EC8DF0310A8B78B40678B806E63E
:1023AB001870010621232C90005F0CE004F07007DD
:1023BB0090005F0BE004F07E007F507D007B017A84
:1023CB006D7990310AE990005F0A7401F090004337
:1023DB009AE0654F700321260FE54FF0E478B4F6D1
:1023EB0078B4E6FFC39410502E74902FF582E4342A
:1023FB006CF583759300E0FFD394004015EF94C800
:10240B005010E62490F582E4346CF583759300E06C
:10241B0004F078B40680C9E478B4F678B4E6FFC368
:10242B009440400321254575F005EFA4241EF58249
:10243B00E5F0342FF583759300E0D39403404CE61D
:10244B0075F008A42431F582E5F03469F583C08377
:10245B00C082759300E0FCA3E0FDA3E0FEA3E0FFC8
:10246B00E675F008A4242DF582E5F03469F5837543
:10247B009300E0F8A3E0F9A3E0FAA3E0FBEF2BFF56
:10248B00EE3AFEED39FDEC3821251878B4E6FF75F0
:10249B00F005A4241EF582E5F0342FF58375930027
:1024AB00E0D39400500321254575F008EFA42431A7
:1024BB00F582E5F03469F583C083C082759300E043
:1024CB00F8A3E0F9A3E0FAA3E0FBC000C001C0024F
:1024DB00C00378B4E675F008A4242DF582E5F0343A
:1024EB0069F583759300E0FCA3E0FDA3E0FEA3E098
:1024FB00FFE47B64FAF9F8310E50D003D002D0011F
:10250B00D000EB2FFFEA3EFEE93DFDE83CFC759366
:10251B0000D082D083310AA7E4FFFEFDFC78B4E63D
:10252B0075F008A4242DF582E5F03469F5837593D5
:10253B0000310AA778B40621242678127C607D012D
:10254B007B017A5F790F7E097F1B310B527E017FF6
:10255B00037D007B017A5F790F310AE990005F0FF1
:10256B00E54FF0A3E550F0A3E551F0E478B4F6782D
:10257B00B4E6FFC3940C505BEF75F007A4243EF553
:10258B0082E4346CF583C083C082759300E0F8A3BA
:10259B00E0F9A3E0FAA3E0FBC00078B4E675F00223
:1025AB00A42430F582E5F0346BF583759300E0FEDF
:1025BB00A3E0FFE4FCFDD000EB2FFFEA3EFEED397C
:1025CB00FDEC38FC759300D082D083310AA778B428
:1025DB0006809C78487C6B7D017B017A6B792D7E24
:1025EB00007FF3310B527E007F1B7D007B017A6BEA
:1025FB00792D310AE990006B2DE54FF0A3E550F0F2
:10260B00A3E551F0C2202116779000A4367401F097
:10261B00E49000A435F0318D137D01E4FF318AF98C
:10262B009000A436E014B412004003212CDA900180
:10263B00264875F003A4C58325F0C5837321267E38
:10264B002126CA2127192127682127B721280621EE
:10265B0028552128A42128F3212942212996212913
:10266B00E9212A3C212A8F212AE2212B35212B8893
:10267B00212C7C900038A9E075F003A42400F97498
:10268B009135F0FA7B82310ABF31003E9000A435C0
:10269B00E0900006006074E0FF7E0075300075313D
:1026AB000575320075330175340075350C7B027A74
:1026BB0000E4FD3178D790000600EFF0212CDA9082
:1026CB000038A9E075F003A42409F9749135F0FAE8
:1026DB007B82310ABF31003E9000A435E0900006AA
:1026EB00016028E0FF7E0075300075310575320002
:1026FB0075330175340075350C7B027A00E4FD31BE
:10270B0078D790000601EFF0212CDA2129E2900016
:10271B0038A9E075F003A42412F9749135F0FA7B13
:10272B0082310ABF31003E9000A435E090000602D2
:10273B006028E0FF7E00753000753105753200753D
:10274B0033017534007535107B027A00E4FD317866
:10275B00D790000602EFF0212CDA2129E290003805
:10276B00A9E075F003A42487F9749135F0FA7B8204
:10277B00310ABF31003E9000A435E09000060E6098
:10278B0028E0FF7E0075300075310575320075331A
:10279B00017534007535107B027A00E4FD3178D772
:1027AB009000060EEFF0212CDA2129E2900038A9D7
:1027BB00E075F003A4241BF9749135F0FA7B823198
:1027CB000ABF31003E9000A435E09000060360285C
:1027DB00E0FF7E00753000753105753200753301F1
:1027EB007534007535037B027A00E4FD3178D790A0
:1027FB00000603EFF0212CDA2129E2900038A9E042
:10280B0075F003A42424F9749135F0FA7B82310A14
:10281B00BF31003E9000A435E0900006046028E034
:10282B00FF7E00753000753105753200753301750B
:10283B0034007535C07B027A00E4FD3178D7900007
:10284B000604EFF0212CDA2129E2900038A9E0757B
:10285B00F003A4242DF9749135F0FA7B82310ABF71
:10286B0031003E9000A435E0900006056028E0FFA3
:10287B007E00753000753105753200753301753486
:10288B00007535407B027A00E4FD3178D790000665
:10289B0005EFF0212CDA2129E2900038A9E075F040
:1028AB0003A42436F9749135F0FA7B82310ABF31D7
:1028BB00003E9000A435E0900006066028E0FF7E05
:1028CB0000753000753105753200753301753400B4
:1028DB007535FF7B027A00E4FD3178D79000060650
:1028EB00EFF0212CDA2129E2900038A9E075F003F2
:1028FB00A4243FF9749135F0FA7B82310ABF310081
:10290B003E9000A435E0900006076028E0FF7E00B3
:10291B0075300075310575320075330175340075EE
:10292B0035FF7B027A00E4FD3178D790000607EF84
:10293B00F0212CDA2129E2900038A9E075F003A4EC
:10294B002448F9749135F0FA7B82310ABF31003E8D
:10295B009000A435E0900006086028E0FEA3E0FF9D
:10296B007530007531057532007533017534EA75B4
:10297B0035607B027A00E4FD3178D790000608EED3
:10298B00212C28E0FEA3E0FF212CCB900038A9E0FE
:10299B0075F003A42451F9749135F0FA7B82310A56
:1029AB00BF31003E9000A435E09000060A6028E09D
:1029BB00FF7E00753000753105753200753301757A
:1029CB0034007535FF7B027A00E4FD3178D7900037
:1029DB00060AEFF0212CDAE0FF7E00212CCB9000D1
:1029EB0038A9E075F003A4245AF9749135F0FA7BF9
:1029FB0082310ABF31003E9000A435E09000060BF7
:102A0B006028E0FF7E00753000753105753200756A
:102A1B0033017534007535287B027A00E4FD31787B
:102A2B00D79000060BEFF0212CDAE0FF7E00212C73
:102A3B00CB900038A9E075F003A42490F97491357C
:102A4B00F0FA7B82310ABF31003E9000A435E09052
:102A5B0000060F6028E0FF7E0075300075310575AC
:102A6B0032007533017534007535287B027A00E42A
:102A7B00FD3178D79000060FEFF0212CDAE0FF7EC6
:102A8B0000212CCB900038A9E075F003A42463F946
:102A9B00749135F0FA7B82310ABF31003E9000A46D
:102AAB0035E0900006126028E0FF7E00753000755F
:102ABB00310575320075330175340075350A7B02AB
:102ACB007A00E4FD3178D790000612EFF0212CDA72
:102ADB00E0FF7E00212CCB900038A9E075F003A419
:102AEB00246CF9749135F0FA7B82310ABF31003EC8
:102AFB009000A435E09000060C6028E0FF7E007586
:102B0B00300075310575320075330175340075353C
:102B1B00017B027A00E4FD3178D79000060CEFF0D0
:102B2B00212CDAE0FF7E00212CCB900038A9E07538
:102B3B00F003A42475F9749135F0FA7B82310ABF46
:102B4B0031003E9000A435E09000060D6028E0FFB8
:102B5B007E007530007531057532007533017534A3
:102B6B00007535017B027A00E4FD3178D7900006C1
:102B7B000DEFF0212CDAE0FF7E00212CCB900038FA
:102B8B00A9E075F003A42499F9749135F0FA7B82CE
:102B9B00310ABF31003E9000A435E0900006107062
:102BAB0003212C2FE0FEA3E0FF7C007D3C310E02C5
:102BBB00753000753102753200753301753400754F
:102BCB0035177B027A00E4FD3178D77C007D3C31F0
:102BDB000A299000A438EEF0A3EFF090000610E065
:102BEB00FEA3E0FF310E02AE04AF05753000753168
:102BFB000275320075330175340075353B7B027AF3
:102C0B00007D033178D79000A439E02FF09000A419
:102C1B0038E03EF0E0FFA3E090000610CFF0A3EF0A
:102C2B00F0212CDAE0FEA3E0FF7C007D3C310E02AC
:102C3B007532007533027B027A00E4FD3186CD7D5F
:102C4B00027F02318AF97B827A05799031003E90BE
:102C5B00000610E0FEA3E0FF7C007D3C310E02AECF
:102C6B0004AF057532007533027B027A007D038059
:102C7B005B900038A9E075F003A4247EF9749135BC
:102C8B00F0FA7B82310ABF31003E9000A435E09010
:102C9B00008D226027E0FF7E0075300075310575D1
:102CAB0032007533017534007535087B027A00E408
:102CBB00FD3178D790008D22EFF08013E0FF7E007E
:102CCB007532007533057B027A00E4FD3186CD90B9
:102CDB0000A435E060097D027C007F08318DD8E4CB
:102CEB009000A435F07F01318B38EF603D7F0831C8
:102CFB008DB85003200F33300C079000A4357401AE
:102D0B00F0300D0D9000A436E0C394125003E00494
:102D1B00F0200E032126219000A436E0D39401501D
:102D2B0003212621E014F02126217F0022318D136F
:102D3B00900038A9E075F003A424A2F9749135F042
:102D4B00FA7B82310ABF31003E7D01E4FF318AF903
:102D5B00900038A9E075F003A424E1F9749135F0E3
:102D6B00FA7B82310ABF31003E7D02E4FF318AF9E2
:102D7B00900038A9E075F003A424EAF9749135F0BA
:102D8B00FA7B82310ABF31003EE4F528AF28FEF50D
:102D9B0030753103F532F53390000605E0FD9000F8
:102DAB000604E02DF535E433F534E4FBFA7D0D3103
:102DBB0078D78F28E49000A436F0E0FF7E007530C2
:102DCB0000753101E4F532F533F5347535017B01CE
:102DDB00FA7D053178D79000A436EFF0E528700224
:102DEB00FF2215289000A436E06003213033318D8B
:102DFB0013900038A9E075F003A424ABF974913556
:102E0B00F0FA7B82310ABF31003E7D01E4FF318A4B
:102E1B00F9900038A9E075F003A424B4F974913546
:102E2B00F0FA7B82310ABF31003E7D02E4FF318A2A
:102E3B00F9900038A9E075F003A424BDF97491351D
:102E4B00F0FA7B82310ABF31003E7D03E4FF318A09
:102E5B00F9900038A9E075F003A424C6F9749135F4
:102E6B00F0FA7B82310ABF31003E75F008E528A4E9
:102E7B002402F582E5F03400F583759300E0FEA3A0
:102E8B00E0FF753200753305E4FBFA7D0A3186CD20
:102E9B0075F008E528A42400F582E5F03400F583ED
:102EAB00759300E0FEA3E0FF7532007533047B01E0
:102EBB007A007D0A3186CD75F008E528A42406F545
:102ECB0082E5F03400F583759300E0FEA3E0FF7517
:102EDB0032007533057B027A007D0A3186CD75F0A1
:102EEB0008E528A42404F582E5F03400F5837593F6
:102EFB0000E0FEA3E0FF7532007533047B037A001C
:102F0B007D0A3186CD75F008E528A42402F582E50B
:102F1B00F03400F583759300E0FEA3E0FF753000FD
:102F2B00753105E4F532F53375347DF535FBFA7DF6
:102F3B000A3178D775F008E528A42402F582E5F06C
:102F4B003400F583759300EEF0A3EFF075F008E510
:102F5B0028A42400F582E5F03400F583759300E096
:102F6B00FEA3E0FF753000753104E4F532F53375DF
:102F7B00340F7535A07B01FA7D0A3178D775F008CF
:102F8B00E528A42400F582E5F03400F58375930061
:102F9B00EEF0A3EFF075F008E528A42406F582E522
:102FAB00F03400F583759300E0FEA3E0FF7530006D
:102FBB00753105E4F532F53375347DF5357B02FA61
:102FCB007D0A3178D775F008E528A42406F582E54B
:102FDB00F03400F583759300EEF0A3EFF075F00875
:102FEB00E528A42404F582E5F03400F583759300FD
:102FFB00E0FEA3E0FF753000753104E4F532F533E4
:10300B0075340F7535A07B03FA7D0A3178D775F0CF
:10301B0008E528A42404F582E5F03400F5837593C4
:10302B0000EEF0A3EF2132BD318D13900038A9E0F3
:10303B0075F003A424ABF9749135F0FA7B82310A55
:10304B00BF31003E7D01E4FF318AF9900038A9E0E1
:10305B0075F003A424B4F9749135F0FA7B82310A2C
:10306B00BF31003E7D02E4FF318AF9900038A9E0C0
:10307B0075F003A424CFF9749135F0FA7B82310AF1
:10308B00BF31003E7D03E4FF318AF9900038A9E09F
:10309B0075F003A424D8F9749135F0FA7B82310AC8
:1030AB00BF31003E75F008E528A42402F582E5F057
:1030BB003400F583759300E0FEA3E0FF75300075D7
:1030CB003104E4F532F533753419753564FBFA7D4B
:1030DB000A3178D78E298F2AE521600A75C7AA7520
:1030EB00C755D2D880F2200C3D200D3A75C7AA7572
:1030FB00C755D2D875F002E528A42407F582E5F070
:10310B00345CF583759300E0FEA3E0FF9000A438D8
:10311B00EEF0A3EFF07532007533047B017A007D7E
:10312B000A3186CD80C0300C037F0022E52A452969
:10313B0070079000A438F0A3F09000A438E0FEA331
:10314B00E0FF75F008E528A42400F582E5F03400D3
:10315B00F583759300EEF0A3EFF075F008E528A466
:10316B002402F582E5F03400F583759300E529F030
:10317B00A3E52AF0318D13900038A9E075F003A474
:10318B0024BDF9749135F0FA7B82310ABF31003ED0
:10319B007D01E4FF318AF9900038A9E075F003A4B2
:1031AB0024C6F9749135F0FA7B82310ABF31003EA7
:1031BB007D02E4FF318AF9900038A9E075F003A491
:1031CB0024CFF9749135F0FA7B82310ABF31003E7E
:1031DB007D03E4FF318AF9900038A9E075F003A470
:1031EB0024D8F9749135F0FA7B82310ABF31003E55
:1031FB0075F008E528A42406F582E5F03400F58384
:10320B00759300E0FEA3E0FF753000753104E4F523
:10321B0032F533753419753564FBFA7D0A3178D77D
:10322B008E298F2AE521600A75C7AA75C755D2D892
:10323B0080F2200C3D200D3A75C7AA75C755D2D820
:10324B0075F002E528A42407F582E5F0345CF583DC
:10325B00759300E0FEA3E0FF9000A438EEF0A3EF1F
:10326B00F07532007533047B017A007D0A3186CD0F
:10327B0080C0300C037F00229000A438E0FEA3E056
:10328B00FF75F008E528A42404F582E5F03400F579
:10329B0083759300EEF0A3EFF075F008E528A424F6
:1032AB0006F582E5F03400F583759300E529F0A36C
:1032BB00E52AF09000706C7455F07F0022318D136D
:1032CB00900038A9E075F003A4240DF9749035F043
:1032DB00FA7B82310ABF31003E7D01E4FF318AF96E
:1032EB00900038A9E075F003A42416F9749035F01A
:1032FB00FA7B82310ABF31003E7D02E4FF318AF94D
:10330B00900038A9E075F003A4241FF9749035F0F0
:10331B00FA7B82310ABF31003E7D03E4FF318AF92B
:10332B00900038A9E075F003A42428F9749035F0C7
:10333B00FA7B82310ABF31003E9000A4367401F053
:10334B00E49000A435F09000A435E0700321362002
:10335B00A3E0C39401FFE49400FE9000285E75F097
:10336B0009EF310AB3EE75F009A42583F583759344
:10337B0000E0FF7E00753000753102E4F532F53365
:10338B0090000605E0FD90000604E02DF535E433D2
:10339B00F534E4FBFA7D073178D79000A436E0C30F
:1033AB009401FDE49400FC9000285E75F009ED316A
:1033BB000AB3EC75F009A42583F583759300EFF040
:1033CB009000286175F009ED310AB3EC75F009A492
:1033DB002583F583759300E0FD90000601E075F001
:1033EB000CA485F034F535753000753102E4F532F7
:1033FB00F533AF05FEFBFA7D0E3178D79000A4367E
:10340B00E0C39401FDE49400FC9000286175F00981
:10341B00ED310AB3EC75F009A42583F583759300A0
:10342B00EFF09000286375F009ED310AB3EC75F0FD
:10343B0009A42583F583759300E0FEA3E0FF7C00D0
:10344B007D0A310E029000A438EEF0A3EFF0753038
:10345B0000753103E4F532F5337534037535E77BCD
:10346B0001FA7D083178D79000A438EEF0A3EFF085
:10347B007C007D0A310A299000A436E0C39401FD3B
:10348B00EC9400FC9000286375F009ED310AB3EC65
:10349B0075F009A42583F583759300EEF0A3EFF087
:1034AB009000286575F009ED310AB3EC75F009A4AD
:1034BB002583F583759300E0FEA3E0FF7C007D0A76
:1034CB00310E029000A438EEF0A3EFF075300075CA
:1034DB003102E4F532F5337534037535E77B02FAC7
:1034EB007D063178D79000A438EEF0A3EFF07C0086
:1034FB007D0A310A299000A436E0C39401FDEC94B7
:10350B0000FC9000286575F009ED310AB3EC75F0FD
:10351B0009A42583F583759300EEF0A3EFF09000DB
:10352B00286075F009ED310AB3EC75F009A4258319
:10353B00F583759300E078B9F67F01318B38EF6036
:10354B000F200D03300E0678B9E66401F6200F3814
:10355B007D037F05318AF978B9E6900038A970119F
:10356B00E075F003A4243AF9749035F0FA7B82806D
:10357B000FE075F003A42431F9749035F0FA7B82D7
:10358B00310ABF31003E80B178B9E6FF9000A43616
:10359B00E0C39401FDE49400FC9000286075F009F1
:1035AB00ED310AB3EC75F009A42583F5837593000F
:1035BB00EFF09000286275F009ED310AB3EC75F06D
:1035CB0009A42583F583759300E0FF7E0075300019
:1035DB00753102E4F532F533F5347535207B03FA9A
:1035EB007D0D3178D79000A436E0C39401FDE494AF
:1035FB0000FC9000286275F009ED310AB3EC75F010
:10360B0009A42583F583759300EFF09000706E7419
:10361B0055F02137AE9000A436E0FF7E00753200E6
:10362B00753302E4FBFAFD3186CD9000A436E0C37E
:10363B009401FFE49400FE9000285E75F009EF31D1
:10364B000AB3EE75F009A42583F583759300E0FFAB
:10365B007E00753200753302E4FBFA7D073186CDAF
:10366B009000A436E0C39401FFE49400FE90002880
:10367B006175F009EF310AB3EE75F009A42583F5F6
:10368B0083759300E0FF7E00753200753302E4FB17
:10369B00FA7D0E3186CD9000A436E0C39401FFE491
:1036AB009400FE9000286375F009EF310AB3EE75B4
:1036BB00F009A42583F583759300E0FEA3E0FF7C5E
:1036CB00007D0A310E027532007533037B017A00DF
:1036DB007D083186CD9000A436E0C39401FFE494BD
:1036EB0000FE9000286575F009EF310AB3EE75F016
:1036FB0009A42583F583759300E0FEA3E0FF7C000E
:10370B007D0A310E027532007533027B027A007D21
:10371B00063186CD7D037F05318AF99000A436E012
:10372B00C39401FFE49400FE9000286075F009EF4C
:10373B00310AB3EE75F009A42583F583759300E088
:10374B00900038A97011E075F003A4243AF9749035
:10375B0035F0FA7B82800FE075F003A42431F97405
:10376B009035F0FA7B82310ABF31003E9000A436CF
:10377B00E0C39401FFE49400FE9000286275F00909
:10378B00EF310AB3EE75F009A42583F58375930029
:10379B00E0FF7E007532007533027B037A007D0DEE
:1037AB003186CD9000A435E060097D027C007F0856
:1037BB00318DD8E49000A435F07F01318B38EF6068
:1037CB003D7F08318DB85003200F33300C0790002C
:1037DB00A4357401F0300D0D9000A436E0C3946352
:1037EB005003E004F0200E032133519000A436E087
:1037FB00D394015003213351E014F02133517F0056
:10380B0022318D13900038A9E075F003A42443F9FD
:10381B00749035F0FA7B82310ABF31003E7D01E4B2
:10382B00FF318AF9900038A9E075F003A4244CF914
:10383B00749035F0FA7B82310ABF31003E7D02E491
:10384B00FF318AF9900038A9E075F003A42455F9EB
:10385B00749035F0FA7B82310ABF31003E7D03E470
:10386B00FF318AF9900038A9E075F003A4245EF9C2
:10387B00749035F0FA7B82310ABF31003E9000A480
:10388B00367401F0E49000A435F09000A435E0709C
:10389B0003213B08A3E0C39401FFE49400FE9000D6
:1038AB000B5475F005EF310AB3EE75F005A42583C3
:1038BB00F583759300E0FD90000600E075F00CA415
:1038CB0085F034F53575300075310375320075337D
:1038DB0001AF057E007B017A007D083178D790001F
:1038EB00A436E0C39401FDE49400FC90000B5475E6
:1038FB00F005ED310AB3EC75F005A42583F583755E
:10390B009300EFF090000B5575F005ED310AB3EC19
:10391B0075F005A42583F583759300E0FEA3E0FF06
:10392B0075300075310275320075330175340075D1
:10393B0035637B027A007D063178D79000A436E0A0
:10394B00C39401FDE49400FC90000B5575F005ED5C
:10395B00310AB3EC75F005A42583F583759300EE5E
:10396B00F0A3EFF090000B5375F005ED310AB3ECBB
:10397B0075F005A42583F583759300E0FF7E007534
:10398B0030007531017532007533017534007535B2
:10399B00037B027A007D0D3178D79000A436E0C30B
:1039AB009401FDE49400FC90000B5375F005ED3190
:1039BB000AB3EC75F005A42583F583759300EFF03E
:1039CB0090000B5775F005ED310AB3EC75F005A4BB
:1039DB002583F583759300E0FF7002800CEFB4FF35
:1039EB000678B976018005EF0478B9F67F01318B43
:1039FB0038EF6015300D0978B9E6D3940040011605
:103A0B00300E0378B906200F677D037F07318AF9E3
:103A1B0078B9E67019900038A9E075F003A4243A40
:103A2B00F9749035F0FA7B82310ABF31003E78B9D8
:103A3B00E6B40119900038A9E075F003A42431F91C
:103A4B00749035F0FA7B82310ABF31003E78B9E6CB
:103A5B00FFD394014096EF9401FFE49400FE75327E
:103A6B00007533037B037A007D073186CD2139F74F
:103A7B0078B9E6FF70299000A436E0C39401FDE409
:103A8B009400FC90000B5775F005ED310AB3EC7503
:103A9B00F005A42583F583759300E4F0213C8DEFAD
:103AAB00B4012A9000A436E0C39401FFE49400FE15
:103ABB0090000B5775F005EF310AB3EE75F005A4C6
:103ACB002583F58375930074FFF0213C8DC378B982
:103ADB00E69401FF9000A436E0C39401FDE494004A
:103AEB00FC90000B5775F005ED310AB3EC75F00542
:103AFB00A42583F583759300EFF0213C8D9000A4F2
:103B0B0036E0FF7E00753200753303E4FBFA7D0867
:103B1B003186CD9000A436E0C39401FFE49400FEFF
:103B2B0090000B5475F005EF310AB3EE75F005A458
:103B3B002583F583759300E0FF7E007532007533A6
:103B4B00037B017A007D083186CD9000A436E0C35B
:103B5B009401FFE49400FE90000B5575F005EF31D6
:103B6B000AB3EE75F005A42583F583759300E0FE8B
:103B7B00A3E0FF7532007533027B027A007D0631BC
:103B8B0086CD9000A436E0C39401FFE49400FE9030
:103B9B00000B5375F005EF310AB3EE75F005A42554
:103BAB0083F583759300E0FF7E007532007533015A
:103BBB007B027A007D0D3186CD7D037F07318AF93B
:103BCB009000A436E0C39401FFE49400FE90000B38
:103BDB005775F005EF310AB3EE75F005A42583F5A3
:103BEB0083759300E07019900038A9E075F003A479
:103BFB00243AF9749035F0FA7B82310ABF31003EDA
:103C0B009000A436E0C39401FFE49400FE90000BF7
:103C1B005775F005EF310AB3EE75F005A42583F562
:103C2B0083759300E0B4FF19900038A9E075F00399
:103C3B00A42431F9749035F0FA7B82310ABF31003C
:103C4B003E9000A436E0C39401FFE49400FE900084
:103C5B000B5775F005EF310AB3EE75F005A425830C
:103C6B00F583759300E0FFD394004016EF94FF505B
:103C7B00117E007532007533037B037A007D0731AB
:103C8B0086CD9000A435E060097D027C007F083171
:103C9B008DD8E49000A435F07F01318B38EF604E66
:103CAB007F08318DB85003200F44300C079000A4CF
:103CBB00357401F0300D1E90000600E075F00CA479
:103CCB00FF9000A436E0C39FE5F06480F874809801
:103CDB005003E004F0200E032138959000A436E049
:103CEB00D394015003213895E014F02138957F00CF
:103CFB00228F28E528B40115D2C4E47891F67533E8
:103D0B0090753415850B35850C36213DF3D29CE42B
:103D1B007892F67533997534D985123585133690AB
:103D2B0000728AE0B4021CAA33A9347B01780E7CA2
:103D3B00157D827E007F01310C8FEF700690007233
:103D4B008AF02290007289E064026003213DF390B7
:103D5B0000728AE06003213DF3AA33A9347B01781A
:103D6B00107C157D82FE7F02310C8FEF701090005E
:103D7B00728A7402F07D2C7C017F03218DD87B012C
:103D8B007A9979D97D2B3114DBAE02AF018E338F4B
:103D9B0034E5344533700321413CAA33A9347B010C
:103DAB0078587C937D827E007F05310C8FEF60030A
:103DBB0021413C7B017A9979D97D0A3114DBAE0222
:103DCB00AF018E338F340534E53470020533F58241
:103DDB00853383759300E0FF64616008EF64416095
:103DEB000321413CE4F56022E4F5298534828533D7
:103DFB0083759300E0F52A6464601690000612E068
:103E0B002464FFE433FEE52A6F7001EE6003214169
:103E1B003C853482853383759300A3E0F52A547F68
:103E2B0075F004A42409F9749635F0FA7B82782F87
:103E3B007C007D007E007F04310D22E53245317020
:103E4B000321413C752D00752E05E52A30E70CE565
:103E5B0032252EF52EE531352DF52DE52E452D6030
:103E6B001E853482853383759300E062290534E522
:103E7B003470020533E52E152E70E0152D80DCE530
:103E8B0029600321413CE52A547FD39452400321FE
:103E9B00413CE528B40112C2C4D2B47A9079157BA7
:103EAB00018B088A09890A800EC29C7A9979D97B81
:103EBB00018B0F8A108911E92402F9E43AF5338951
:103ECB0034853482853383759300E0F52BA3E0F5BD
:103EDB002C74022534F534E43533F533E52A20E729
:103EEB0003213F7DB4841FAA33A9347B0178C77C9F
:103EFB00007D007E007F07310D22317AD790005F65
:103F0B000A7401F08055AE31AF32C006C007AA3338
:103F1B00A9347B01C003C002C001E52A547F75F0B0
:103F2B0002A42455F9749735F0FA7B82310A67FBAA
:103F3B00AAF0C3E52C9401FFE52B9400FEAC2FAD4A
:103F4B0030310A29EB2FFFEA3EA807FC7D01D00197
:103F5B00D002D003D007D006310D22E528B40109D9
:103F6B00750D00750E042140BB75140075150421E9
:103F7B0040BBE528B4010DE5322404F50EE43531E0
:103F8B00F50D800BE5322404F515E43531F514E518
:103F9B002A24FE601D24FE60032140723177C4A8E1
:103FAB0034AC337D017B007A0079C77E007F07211B
:103FBB0040B89000706A7401F06528900006047098
:103FCB004EE02401FFE433FEA3E07C002FFFEC3E28
:103FDB00FE9000060BE02FFFEC3EFE9000060FE07C
:103FEB002FFFEC3EFEEF25E0FFEE33FE90005F0B64
:103FFB00E0FCA3E0FD310A29EF2404F50EE43EF5C5
:10400B000D7B027A0079008B088A09890A804CE0C3
:10401B002401FFE433FEA3E07C002FFFEC3EFE9077
:10402B0000060BE02FFFEC3EFE9000060FE02FFF8B
:10403B00EC3EFEEF25E0FFEE33FE90005F0BE0FC65
:10404B00A3E0FD310A29EF2404F515E43EF5147BBA
:10405B00027A0079008B0F8A10891190000612E00A
:10406B002464310A158049AE31AF32C006C007E572
:10407B002A547F75F002A42455F9749735F0FA7B16
:10408B0082310A67FBAAF0C3E52C9401FFE52B9460
:10409B0000FEAC2FAD30310A29EB2FFFEA3EFAA917
:1040AB00077B01A834AC337D01D007D006310D223C
:1040BB00E528B40111850837850938850A39850D3E
:1040CB002D850E2E800F850F37851038851139857C
:1040DB00142D85152EE4F529E52E152EAE2D700227
:1040EB00152D4E6015AB370539E539AA3870020529
:1040FB003814F93109FF622980DEAB37AA38A939A8
:10410B00E529310A15E528B40114AB08050AE50ABF
:10411B00AA097002050914F93109FFF5C122AB0F89
:10412B000511E511AA107002051014F93109FFF5FC
:10413B009922C0E0C0F0C093C083C082C095C085F7
:10414B00C084C086758600C0D075D000C000C00189
:10415B00C002C003C004C005C006C007E5A5B4017A
:10416B000385A425859625E52520E0032142557B73
:10417B00417A1079123109FFF526540FF52790007B
:10418B0038A6E0FFE527C39F5003214252E5279F46
:10419B00F527AF267804EF08800103D8FD5407F507
:1041AB0026E5277003311437E52730E05C7B417A35
:1041BB001079173109FF540FFF780408800123D8B9
:1041CB00FDFFC3E527940175F003A4C313FE24661A
:1041DB00F8E6540F4FF67B417A1079183109FFFF3F
:1041EB00780408800123D8FD54F0FD7B417A1079C7
:1041FB00173109FF54F0FF780408800103D8FD4DF7
:10420B00FF74672EF8A60780287B417A1079173147
:10421B0009FFFFE52775F003A4C313FE2465F8A679
:10422B0007093109FF540FFF74662EF8E654F04F5F
:10423B00F6E52725E0249BF582E43443F58375935B
:10424B0000E4F0A3741EF075ABA0E52530E13E7BD6
:10425B00417A1079223109FFF526540FF52790008A
:10426B0038A7E0FFE527C39F4020E5279FF5279060
:10427B00000600E0252725E0249BF582E43443F576
:10428B0083759300E4F0A3741EF075ACA0E52520B4
:10429B00E2032143DC7B417A1079323109FFF526A9
:1042AB00540FF527900038A8E0FFE527C39F500374
:1042BB002143D9E5279FF527AF267804EF08800126
:1042CB0003D8FD5407F5269000060EE0FFE527C343
:1042DB009F5006E52725E0800DC3E5279F75F00568
:1042EB00A4FEEF25E02E2526C39401F526E5262511
:1042FB00E025E0FF90000604E0C39FFFD3648094A9
:10430B008440027F04EF25E0FFD364809480500348
:10431B002143B790008D22E09402502DEFF58233AC
:10432B0095E0F5837B417A107937C001E52675F06E
:10433B0008A42407F9745C35F0A801FC7D01D001B9
:10434B00AE83AF82310D2280637B417A107937C007
:10435B0002C001E52675F080A424F0F9747335F0E2
:10436B00FA74F02526F582E4348CF583759300E01E
:10437B0075F010A429F9EA35F0A801FC7D01D001F4
:10438B00D0027E007F08310D2274F02526F582E4E1
:10439B00348CF583759300E0045407FF74F02526E5
:1043AB00F582E4348CF583759300EFF090000601F1
:1043BB00E0FF90000600E02F252725E0249BF582E7
:1043CB00E43443F583759300E4F0A3741EF075ADEC
:1043DB00A0E52530E33F7B417A1079423109FFF5A7
:1043EB0026540FF52790000601E0FF90000600E031
:1043FB002FFF90000602E02FFFA3E02F252725E0DB
:10440B00249BF582E43443F583759300E4F0A374A5
:10441B001EF075AEA0E52520E40321454D7B417AC6
:10442B001079523109FFF526540FF52779573109C9
:10443B00FFF526C21030E702D21053267FE526D3B4
:10444B0094005003214521152674662526F582E438
:10445B003438F583759300E0F526D394005003218F
:10446B0045217B417A1079583109FFFD90000604F4
:10447B00E02526FFE433CFC39401CF9400FEEF2554
:10448B00E0FFEE33FE74072FF582745C3EF5837507
:10449B009300E4F0A3EDF0C3E5269401FFE4940050
:1044AB00FE74A02FF582746F3EF58375930074969E
:1044BB00F030102F74602FF582746F3EF583759377
:1044CB0000E0C394035035C3E5269401FFE4940048
:1044DB00FE74602FF582746F3EF583759300E004D4
:1044EB00F08019C3E5269401FFE49400FE74602F5D
:1044FB00F582746F3EF583759300E4F0C3E5269463
:10450B0001FFE49400FE74202FF58274703EF58356
:10451B00759300E004F090000601E0FF90000600A8
:10452B00E02FFF90000602E02F252725E0249BF5C6
:10453B0082E43443F583759300E4F0A3743CF07587
:10454B00AFA0D007D006D005D004D003D002D00145
:10455B00D000D0D0D086D084D085D095D082D083D7
:10456B00D093D0F0D0E032318D137B827A07791063
:10457B0031003E7D01E4FF318AF97B827A077910A5
:10458B0031003E7D02E4FF318AF9900038A9E075D5
:10459B00F003A424FCF9749135F0FA7B82310ABF45
:1045AB0031003E7D03E4FF318AF9900038A9E075B4
:1045BB00F003A42405F9749235F0FA7B82310ABF1B
:1045CB0031003E7E007F0C7D007B017AA4793A316D
:1045DB000AE9E49000A436F09000A436E0FCC39402
:1045EB000A5079E0FD243AF582E434A4F5837593FF
:1045FB0000E0FF7E00C007ED75F00584E5F075F077
:10460B0003A404FDEC75F00584FB7A00753000758E
:10461B003102E4F532F53390000605E0FF90000619
:10462B0004E02FF535E433F534D0073178D790001B
:10463B00A436E0FE243AF582E434A4F583759300A6
:10464B00EFF0743A2EF582E434A4F583759300E011
:10465B00600A9000A436E004F02145E3E4F528AFAE
:10466B0028FEF530753102F532F533F534753532F8
:10467B007B02FA7D0C3178D78F28900072CDE0F554
:10468B0029A3E0F52AE52A45297006752903752A21
:10469B00F5753000753104E4F532F5337534047576
:1046AB00354C7B03FA7D09AF2AAE293178D78E2999
:1046BB008F2A900072CDE529F0A3E52AF07D03E463
:1046CB00FF318AF9900038A9E075F003A4240EF9A4
:1046DB00749235F0FA7B82310ABF31003E90007242
:1046EB00CBE0FEA3E0FF753000753102E4F532F547
:1046FB0033F5347535287B03FA7D093178D7900073
:10470B0072CBEEF0A3EFF07C007D0A310E02EF7559
:10471B00F029A42438F582E43409F583E5822528B1
:10472B00F582E43583F583759301E493FDEF75F022
:10473B0029A4240FF582E43409F583E5822528F5B5
:10474B0082E43583F583759301E493C39DFBE49475
:10475B0000FA900072CBE0FEA3E0FF7C007D0A31F3
:10476B000E02AF03AE02310A297C007D0A310E0224
:10477B009000A436EFF0FB900072CBE0FEA3E0FFBD
:10478B007C007D0A310E02EF75F029A4240FF5820F
:10479B00E43409F583E5822528F582E43583F58336
:1047AB00759301E493FFEBFDC3EF9DFFE49400AB26
:1047BB0007FAE4F9F8AE29AF2AFCFD310EE3E47BEE
:1047CB00F57A03F9F83114948E298F2A318D1390D1
:1047DB000038A9E075F003A424CFF9749135F0FAF1
:1047EB007B82310ABF31003E7D01E4FF318AF990B3
:1047FB000038A9E075F003A424D8F9749135F0FAC8
:10480B007B82310ABF31003EA20CB3500FA20DB315
:10481B00500A75C7AA75C755D2D880EC300C037FE8
:10482B000022318D137B827A07791031003E7D0196
:10483B00E4FF318AF97B827A07791031003E7D03E0
:10484B00E4FF318AF9900038A9E075F003A424F352
:10485B00F9749135F0FA7B82310ABF31003EC212F6
:10486B00E49000A436F09000A436E0FFC3940A4015
:10487B0003214989743A2FF582E434A4F5837593A7
:10488B0000E0F5287003214989152875F002E52809
:10489B00A42407F582E5F0345CF583759300E0FF03
:1048AB00A3E09000A438CFF0A3EFF090000604E053
:1048BB00FFE528C39F5011C39000A439E094C89022
:1048CB0000A438E094004016E528C39F403D9000BB
:1048DB00A439E094149000A438E09400502DE528FE
:1048EB002401FFE433FE9000A436E0FC75F0058450
:1048FB00E5F075F003A404FDEC75F00584FB7A007C
:10490B007532007533023186CDD21275F008E52869
:10491B00A42400F582E5F03400F583759300E4F0F0
:10492B00A3F075F008E528A42402F582E5F0340025
:10493B00F583759300E4F0A3F09000A438E0FEA398
:10494B00E0FF75F008E528A42404F582E5F03400B7
:10495B00F583759300EEF0A3EFF075F008E528A44E
:10496B002406F582E5F03400F583759300E529F014
:10497B00A3E52AF09000A436E004F0214871301230
:10498B00057F01318B389000706C7455F07F0022DD
:10499B0090004F84E07002FF22E49000A436F031C7
:1049AB008D139000A436E075F008A42486F582E5FB
:1049BB00F0344FF583759300E07019900038A9E03F
:1049CB0075F003A42417F9749235F0FA7B82310A3F
:1049DB00BF31003E9000A436E075F008A42486F5A4
:1049EB0082E5F0344FF583759300E0B40119900024
:1049FB0038A9E075F003A42420F9749235F0FA7B02
:104A0B0082310ABF31003E9000A436E075F008A455
:104A1B002486F582E5F0344FF583759300E0B402FC
:104A2B0019900038A9E075F003A4245FF97492354E
:104A3B00F0FA7B82310ABF31003E7D03E4FF318AFD
:104A4B00F9900038A9E075F003A42429F974923584
:104A5B00F0FA7B82310ABF31003E9000A436E0753C
:104A6B00F008A42486F582E5F0344FF583759300A6
:104A7B00E0C394024003214C37E4FD7F02318AF9F5
:104A8B009000A436E075F008A42487F582E5F03495
:104A9B004FF583759300E0FEA3E0FF9000A438EE82
:104AAB00F0A3EFF0C394C0EE94005024900038A90B
:104ABB00E075F003A42432F9749235F0FA7B82315D
:104ACB000ABF31003E9000A438A3E0F528214BF13A
:104ADB00C39000A439E094809000A438E094015076
:104AEB0027900038A9E075F003A4243BF9749235A4
:104AFB00F0FA7B82310ABF31003E9000A438A3E06C
:104B0B00C394C0F528214BF19000A438E0FEA3E03C
:104B1B00FFC39410EE94025017C3EF9480F52875E1
:104B2B00F015A42423F9740E35F0FA7B01214BEE1A
:104B3B00C39000A439E094509000A438E094025044
:104B4B0026900038A9E075F003A42444F97492353B
:104B5B00F0FA7B82310ABF31003E9000A438A3E00B
:104B6B00C39410F528807FC39000A439E0949090F3
:104B7B0000A438E094025026900038A9E075F003A9
:104B8B00A42444F9749235F0FA7B82310ABF3100C8
:104B9B003E9000A438A3E0C39450F5288048C390FE
:104BAB0000A439E094BB9000A438E0940290003844
:104BBB00A9E075F003501EA42468F9749235F0FA3D
:104BCB007B82310ABF31003E9000A438A3E0C3942E
:104BDB0090F5288011A42471F9749235F0FA7B8238
:104BEB00310ABF31003E9000A438E064027004A388
:104BFB00E064BB60377D01E4FF318AF9900038A98E
:104C0B00E075F003A4247AF9749235F0FA7B8231C3
:104C1B000ABF31003EE5282401FFE433FE75320064
:104C2B007533037B017A007D083186CD7D02E4FF6D
:104C3B00318AF97B827A08795C31003E9000A43688
:104C4B00E075F008A4248BF582E5F0344FF58375FD
:104C5B009300E0FF7E007532007533027B027A0011
:104C6B007D013186CD9000A436E075F008A4248A2E
:104C7B00F582E5F0344FF583759300E0FF7E007508
:104C8B0032007533027B027A007D043186CD9000B1
:104C9B00A436E075F008A4248CF582E5F0344FF5CA
:104CAB0083759300E0FF7E007532007533027B0243
:104CBB007A007D073186CD9000A436E075F008A40C
:104CCB00248DF582E5F0344FF583759300E0FF7E7C
:104CDB00007532007533027B027A007D0A3186CD76
:104CEB00E4FF318B38EF70032149AA200C31300ED1
:104CFB000D9000A436E0D394004003E014F0200D97
:104D0B00032149AA90004F84E0C39401FF9000A4B3
:104D1B0036E0C39F40032149AAE004F02149AA31A0
:104D2B008D13900038A9E075F003A4244DF974920B
:104D3B0035F0FA7B82310ABF31003E7D01E4FF3151
:104D4B008AF9900038A9E075F003A42456F97492FF
:104D5B0035F0FA7B82310ABF31003EE4FF318B38EC
:104D6B00EF6009300F06E490004F84F07F0022E4DF
:104D7B00F5289000060BE0FFE528C39F4003215167
:104D8B001C75C7AA75C755D2D89000060FE0252809
:104D9B00F52924F0F582E4346CF583759300E0D3A8
:104DAB009400401174F02529F582E4346CF5837579
:104DBB009300E014F074182529F582E4346DF58323
:104DCB00759300E0D39400401174182529F582E403
:104DDB00346DF583759300E014F074F02529F5829A
:104DEB00E4346CF583759300E06003215117C21214
:104DFB0074182529F582E4346DF583759300E06012
:104E0B00032150EA75F014E528A4248FF582E5F010
:104E1B003433F583759300E06040C39401FFE49451
:104E2B0000FEEF25E0FFEE33FE74872FF582745DF5
:104E3B003EF583759300E0FEA3E0FFE52825E02413
:104E4B0040F582E4346DF583759300E0FCA3E0FD3F
:104E5B00C3EF9DEE9C40032150EA75F014E528A4A6
:104E6B00248EF582E5F03433F583759300E0C3941B
:104E7B0001FFE49400FEEF25E0FFEE33FE74872F75
:104E8B00F582745D3EF583759300E0F52AA3E0F59A
:104E9B002B75F014E528A4249EF582E5F03433F548
:104EAB0083759300E0FEA3E0FFC3952BEE952A508C
:104EBB00048E2A8F2BE52925E02440F582E4346DFE
:104ECB00F583759300E0FEA3E0C3952BFFEE952AC7
:104EDB00AB07FAD3EB9400EA648094805003215023
:104EEB00EA75F014E528A42495F582E5F03433F542
:104EFB0083759300E0FF7E007C007D0A310A298ECA
:104F0B002A8F2BC3EB952BE52A6480F8EA648098F3
:104F1B0075F014E528504DA42492F582E5F0343356
:104F2B00F583759300E0FF75F014E528A42493F541
:104F3B0082E5F03433F583759300E0C39FFFEC9467
:104F4B0000FEAD03AC02310A29AC2AAD2B310E1891
:104F5B00AA06AB0775F014E528A42492F582E5F0B8
:104F6B003433807CA42493F582E5F03433F58375D8
:104F7B009300E0FF75F014E528A42494F582E5F086
:104F8B003433F583759300E0C39FFFE49400AD07C2
:104F9B00FCC3EB952BFFEA952AFE310A29AA06AB37
:104FAB000775F014E528A42496F582E5F03433F563
:104FBB0083759300E0FF7E007C007D0A310A298E09
:104FCB002A8F2BAC2AAD2BAF03AE02310E18AA06DB
:104FDB00AB0775F014E528A42493F582E5F0343380
:104FEB00F583759300E02BFBE43AFA75F014E52892
:104FFB00A4249AF582E5F03433F583759300E0FC35
:10500B00A3E0FDAE02AF03310A297C007D64310EB3
:10501B000274F02529F582E4346CF583759300EF67
:10502B00F0743E2529F582E43438F583759300E05E
:10503B00FFD39400401074F02529F582E4346CF50D
:10504B0083759300EFF074F02529F582E4346CF549
:10505B0083759300E0FFE52925E02490F582E43485
:10506B006DF583759300E48FF0310A3BE52925E05C
:10507B0025E02423F582E4348DF583C083C082754B
:10508B009300E0F8A3E0F9A3E0FAA3E0FB74F025AA
:10509B0029F582E4346CF583759300E0FFE4FCFDA5
:1050AB00FEEB2FFFEE3AFEED39FDEC38FC7593006D
:1050BB00D082D083310AA775F014E528A4249AF581
:1050CB0082E5F03433F583759300A3E0FF74182564
:1050DB0029F582E4346DF583759300EFF0D21275E8
:1050EB00F014E528A42490301212F582E5F0343345
:1050FB00F583759300E0FF318BB48010F582E5F0FA
:10510B003433F583759300E0FF318C0D0528214D69
:10511B007D22318D13900038A9E075F003A424672C
:10512B00F9749035F0FA7B82310ABF31003E7D0174
:10513B00E4FF318AF9900038A9E075F003A42470DC
:10514B00F9749035F0FA7B82310ABF31003E7D0253
:10515B00E4FF318AF9900038A9E075F003A42479B3
:10516B00F9749035F0FA7B82310ABF31003E900022
:10517B00A4367401F0E49000A435F09000A435E05F
:10518B007003215356A3E0C39401FFE49400FEEF98
:10519B0025E0FFEE33FE74532FF58274083EF58342
:1051AB00759300E0FEA3E0FF7C007D0A310E0290B8
:1051BB0000A438EEF0A3EFF0753000753103E4F581
:1051CB0032F5337534037535E77B01FA7D0431789D
:1051DB00D79000A438EEF0A3EFF09000A438E0FED7
:1051EB00A3E0FF7C007D0A310A29AC06AD079000D5
:1051FB00A436E0FBC39401FFE49400FEEF25E0FF2F
:10520B00EE33FE74532FF58274083EF583759300CD
:10521B00ECF0A3EDF0EBC39401FFE49400FE74D328
:10522B002FF58274093EF583759300E0FF7E0075C0
:10523B003000753101E4F532F533F5347535037B08
:10524B0001FA7D0E3178D79000A436E0FEC39401AD
:10525B00FDE49400FC74D32DF58274093CF5837541
:10526B009300EFF0EEC39401FFE49400FEEF25E012
:10527B00FFEE33FE74132FF58274063EF5837593A0
:10528B0000E0FEA3E0FF7C007D0A310E029000A43B
:10529B0038EEF0A3EFF0753000753103E4F532F51D
:1052AB00337534037535E77B02FA7D053178D7907A
:1052BB0000A438EEF0A3EFF09000A438E0FEA3E0DA
:1052CB00FF7C007D0A310A29AC06AD079000A4369D
:1052DB00E0FBC39401FFE49400FEEF25E0FFEE3307
:1052EB00FE74132FF58274063EF583759300ECF074
:1052FB00A3EDF0EBC39401FFE49400FE74932FF540
:10530B008274073EF583759300E0FF7E00753000D5
:10531B00753101E4F532F533F5347535037B02FA5B
:10532B007D0E3178D79000A436E0C39401FDE49450
:10533B0000FC74932DF58274073CF583759300EF95
:10534B00F09000706D7455F021543E9000A436E03F
:10535B00FF7E00753200753303E4FBFA7D0831865E
:10536B00CD9000A436E0C39401FFE49400FEEF253A
:10537B00E0FFEE33FE74532FF58274083EF5837510
:10538B009300E0FEA3E0FF7C007D0A310E02753234
:10539B00007533037B017A007D043186CD9000A428
:1053AB0036E0C39401FFE49400FE74D32FF58274AE
:1053BB00093EF583759300E0FF7E0075320075336F
:1053CB00017B017A007D0E3186CD9000A436E0C3BF
:1053DB009401FFE49400FEEF25E0FFEE33FE74131F
:1053EB002FF58274063EF583759300E0FEA3E0FF74
:1053FB007C007D0A310E027532007533037B027A15
:10540B00007D053186CD9000A436E0C39401FFE406
:10541B009400FE74932FF58274073EF58375930009
:10542B00E0FF7E007532007533017B027A007D0E42
:10543B003186CD9000A435E060097D027C007F08A9
:10544B00318DD8E49000A435F07F01318B38EF60BB
:10545B00537F08318DB85003200F49300C07900053
:10546B00A4357401F0300D2390000605E0FF900089
:10547B000604E02FFFE433FE9000A436E0C39FEE5A
:10548B006480F87480985003E004F0200E032151DF
:10549B00869000A436E0D394015003215186E0148A
:1054AB00F02151867F0022E4F52875F005E528A44C
:1054BB00241EF582E5F0342FF583759300E0FF751C
:1054CB00F005E528A4241FF582E5F0342FF583754C
:1054DB009300E0F52975F005E528A42421F582E574
:1054EB00F0342FF583759300E0F52AA3E0F52B45F7
:1054FB002A7005F52A752B64C21275F005E528A4F0
:10550B002420F582E5F0342FF583759300E0B40188
:10551B0002D212EF70032157B4E52970032157B45F
:10552B00EF24FE60261460331470032155E61470CB
:10553B00032156A6240460032157A8AF29318C37C9
:10554B00301201B340032157A8801EAF29318C6064
:10555B00301201B340032157A8800EAF29318BE1E4
:10556B00301201B340032157A875F004E528A42499
:10557B0012F582E5F0345FF583C083C0827593002A
:10558B00E0F8A3E0F9A3E0FAA3E0FBE4FCFDEB25D4
:10559B002BFFEA352AFEED39FDEC38FC759300D074
:1055AB0082D083310AA775F008E528A4242DF58253
:1055BB00E5F03469F583C083C082759300E0F8A3EE
:1055CB00E0F9A3E0FAA3E0FBE4FCFDEB252BFFEAFB
:1055DB00352AFEED39FDEC3821579D201F0321574D
:1055EB00A875F004E528A42412F582E5F0345FF5E4
:1055FB0083C083C082759300E0F8A3E0F9A3E0FABF
:10560B00A3E0FBC3E5299401FFE49400FEEF25E042
:10561B00FFEE33FE74872FF582745D3EF583759331
:10562B0000E0FEA3E0FFEE3395E0FDFCEB2FFFEA7D
:10563B003EFEE93DFDE83CFC759300D082D0833102
:10564B000AA775F008E528A4242DF582E5F0346946
:10565B00F583C083C082759300E0F8A3E0F9A3E063
:10566B00FAA3E0FBC3E5299401FFE49400FEEF25C8
:10567B00E0FFEE33FE74872FF582745D3EF5837584
:10568B009300E0FEA3E0FFEE3395E0FDFCEB2FFF74
:10569B00EA3EFEE93DFDE83C21579D201F032157C3
:1056AB00A875F004E528A42412F582E5F0345FF523
:1056BB0083C083C082759300E0F8A3E0F9A3E0FAFE
:1056CB00A3E0FBC3E5299401FFE49400FEEF25E082
:1056DB00FFEE33FE74872FF582745D3EF583759371
:1056EB0000E0FEA3E0FF75F002E529A42487F58214
:1056FB00E5F0345DF583759300E0FCA3E0FDEF2D41
:10570B00FFEE3CFE3395E0FDFCEB2FFFEA3EFEE99E
:10571B003DFDE83CFC759300D082D083310AA77520
:10572B00F008E528A4242DF582E5F03469F583C053
:10573B0083C082759300E0F8A3E0F9A3E0FAA3E03D
:10574B00FBC3E5299401FFE49400FEEF25E0FFEE97
:10575B0033FE74872FF582745D3EF583759300E0FD
:10576B00FEA3E0FF75F002E529A42487F582E5F09E
:10577B00345DF583759300E0FCA3E0FDEF2DFFEEA8
:10578B003CFE3395E0FDFCEB2FFFEA3EFEE93DFDD1
:10579B00E83CFC759300D082D083310AA70528E53D
:1057AB0028C3944050032154B5228C2D8D2E8A2F63
:1057BB008B30A907C3E52E94C0E52D9400500B85C3
:1057CB002E367534727535408032C3E52E9480E5E4
:1057DB002D9401500FC3E52E94C0F53675347275B8
:1057EB0035588018C3E52E9410E52D9402500DC347
:1057FB00E52E9480F536753472753570E52E25E0FF
:10580B00FFE52D33FE74FF2FF58274433EF5837550
:10581B009300E0F532A3E0F533E960032158B0E5DE
:10582B003345327003215A5BC390000609E0953073
:10583B00FF90000608E0952FFEC3E5339FE5329EEF
:10584B005011AD2EAC2D7F0131651890004EF1E05B
:10585B0044AAF0E52E25E0FFE52D33FE74FF2FF56E
:10586B008274433EF583759300E4F0A3F0C3E52EF9
:10587B009410E52D94024003215A5BE53613131364
:10588B00541F7593002535F582E43534F5837593F4
:10589B0000E0FE7F01E5365407F8EF08800123D8BE
:1058AB00FDF45EF022E533640145327003215A5B4F
:1058BB00E5334532702590000608E0FCA3E0FDE5DA
:1058CB002E25E0FFE52D33FE74FF2FF58274433E4A
:1058DB00F583759300ECF0A3EDF022E533153370EF
:1058EB00021532E52E25E0FFE52D33FE74FF2FF573
:1058FB008274433EF583759300E532F0A3E533F0F4
:10590B00C390000609E09530FF90000608E0952F44
:10591B00FEEF65337003EE65326003215A1AE531F1
:10592B00D39401400790004EEF7401F0C3E52E9421
:10593B00C0E52D9400504CD212E4FFAE070FEE6081
:10594B001474052FF582E434A4F583759300E0708D
:10595B00EAC21280E630120F7E007F187D007B01B9
:10596B007AA47905310AE9E52EAE2D7803CEC3135F
:10597B00CE13D8F92405F58274A43EF583759300F4
:10598B007401F0E52E25E0FFE52D33FE74772FF53E
:10599B008274493EF583759300E4F0A3F0741125EE
:1059AB002EF582741A352DF583759300E0FFD39491
:1059BB00004018EF9401FFE49400FE74F42FF5827D
:1059CB00744E3EF5837593007401F0AD2EAC2DE44F
:1059DB00FF31651890004EF17455F0C3E52E94100D
:1059EB00E52D9402506AE536131313541F7593007B
:1059FB002535F582E43534F583759300E0FE7F01A0
:105A0B00E5365407F8EF08800123D8FD4EF022E568
:105A1B003364014532703990004EF3E0640270300C
:105A2B00E531B4032B90007289E0B402107B017A4C
:105A3B003C79AA3114F8EF4E6003756001852D6136
:105A4B00852E6290004EF27401F0755F04E4F55EF2
:105A5B0022D2C4E47891F675579075581585588203
:105A6B00855783759300E0F55D64646016900006BE
:105A7B0012E02464FFE433FEE55D6F7001EE60031A
:105A8B00215CD1855882855783759300A3E0F55D22
:105A9B00E50C150C7002150BAF58AE5731872EE580
:105AAB000C150CAE0B7002150BF5828E83759300E3
:105ABB00E065196003215CD1850C82850B8375939E
:105ACB0000E065186003215CD1855882855783758A
