:1000000000308A002F2800000130A0002008803C2A
:10001000031C2C2883168601831220088600FA30E0
:10002000A200223084008313000803192528013020
:10003000F800F701F70B1A28F80B19280E30F70013
:10004000F70B20280000800B1728831686018312E7
:1000500086010310A00D06288A110A125B2884016C
:1000600083131F308305143083169900A63098003F
:10007000903083129800A0010830A10083161F144D
:100080009F141F159F1107309C008113FF308500BE
:10009000831283168601831205088600FF308316BB
:1000A0008500831205080139A1002108013A031DCA
:0C00B0005B2804285B28831646286300A8
:02400E00313F40
:00000001FF
;PIC16F876A
;CRC=6266  CREATED="05-nov.-15 11:51"
