:1000000000308A0019280000213084008313000882
:10001000031918280130F800F701F70B0D28F80B29
:100020000C280E30F700F70B13280000800B0A286D
:100030000800840183131F30830514308316990050
:10004000A6309800903083129800A00183161F14E8
:100050009F141F159F1107309C008113FF308500EE
:1000600083128508031D3B280130A00083168601FA
:10007000831220088600FF30831685008312050B4B
:1000800056280130A0002008203C031C5628831667
:100090008601831220088600FA30A100042083160E
:1000A0008601831286010310A00D4328FF308316BA
:1000B000850083120508023C031D73282030A00030
:1000C0002008003C03187328831686018312200839
:1000D0008600FA30A100042083168601831286016F
:0C00E0000310A00C602883162E2863007B
:02400E00313F40
:00000001FF
;PIC16F876A
;CRC=3354  CREATED="15-oct.-15 09:21"
