:1000000000308A00AB2800003308F80132020318E0
:100010000C283208F7001828F7010830B400B20D98
:10002000F70D330877020318F700F80DB40B0F280B
:100030000800F701F801330803103418F707F70C2C
:10004000F80CB418F707F70CF80C3419F707F70C8D
:10005000F80CB419F707F70CF80C341AF707F70C7B
:10006000F80CB41AF707F70CF80C341BF707F70C69
:10007000F80CB41BF707F70CF80C08003108093C22
:10008000031C4728AD01AC013108AB0082283108C0
:10009000633C031C5C28AD013108B2000A30B30098
:1000A00004207808AC000A30B3002C08B4001920F2
:1000B00078083102AB0082283108B2006430B30006
:1000C00004207808AD002D08B3006430B400192076
:1000D00078083102AC002C08B2000A30B3000420CA
:1000E0007808AC000A30B3002C08B4001920780856
:1000F0003102B2006430B3002D08B4001920780832
:100100003202AB008A110A12DF288316850183129E
:100110003108850020303207840083130008B300C3
:10012000831686018312330886000800313084006C
:10013000831300080319AA280130F800F701F70B10
:100140009F28F80B9E280E30F700F70BA52800001B
:10015000800B9C280800840183131F308305143012
:1001600083169900A6309800903083129800831669
:100170001F149F141F159F1107309C00C03083125D
:10018000A000F930A100A430A200B030A300993043
:10019000A4009230A5008330A600F830A70080307C
:1001A000A8009030A9007F30AA0083168113053083
:1001B0008312B0009430AF002F08B1003E28023007
:1001C000B1002D08B20085203008B100962004301F
:1001D000B1002C08B20085203008B100962008300C
:1001E000B1002B08B20085203008B1009620DA2833
:0201F0006300AA
:02400E00313F40
:00000001FF
;PIC16F876A
;CRC=7E81  CREATED="12-janv.-16 09:44"
