:1000000000308A0049280000223084008313000851
:10001000031918280130F800F701F70B0D28F80B29
:100020000C280E30F700F70B13280000800B0A286D
:1000300008000130A0002008203C031C2E28831655
:100040008601831220088600FA30A200042083165D
:100050008601831286010310A00D1B288A110A1243
:1000600073282030A0002008003C0318462883167F
:100070008601831220088600FA30A200042083162D
:100080008601831286010310A00C33288A110A12FC
:100090007828840183131F30830514308316990058
:1000A000A6309800903083129800A0010830A1007B
:1000B00083161F149F141F159F1107309C00811376
:1000C000FF308500831205080339A100A108031D34
:1000D00070280130A0008316860183122008860054
:1000E000210B732819282108023C031D7828312888
:0600F00083166028630086
:02400E00313F40
:00000001FF
;PIC16F876A
;CRC=E846  CREATED="05-nov.-15 09:43"
